:100000000C9424020C9441020C9441020C94410281
:100010000C9441020C9441020C9441020C94410254
:100020000C9441020C9441020C9412260C94CE259F
:100030000C940F270C9441020C9441020C94410241
:100040000C9441020C9441020C9441020C94410224
:100050000C9441020C94EB260C9441020C94410246
:100060000C9441020C9441020C9441020C94410204
:100070000C9441020C9441020C9441020C944102F4
:100080000C9441020C9441020C9441020C944102E4
:100090000C9441020C9441020C9441020C944102D4
:1000A0000C9441020C9441020C9441020501098018
:1000B000A101850319012AB700150126B700950192
:1000C00075108100C0050C0901A101850419012AE0
:1000D000A002150126A002950175108100C005013E
:1000E0000906A1018506050719E029E71500250184
:1000F0009508750181020507190029EF15002501F2
:1001000095F075018102050819012905950575010C
:100110009102950175039101C00660FF0961A1017B
:100120000962150026FF00952075088102096315F4
:100130000026FF00952075089102C005010906A15F
:1001400001050719E029E7150025019508750181CA
:10015000029501750881010507190029FF15002680
:10016000FF0095067508810005081901290515008D
:100170002501950575019102950175039101C0FD59
:10018000377A585A000004E6D6B446020021011618
:10019000000000742FE5A3E0008300705D003D883F
:1001A00089C65436C3174FE4FA83B8538367100ED9
:1001B000C606482F30C62CDFBDB9374EF595B2E0E4
:1001C0003C436DA84430EFD0719F2425E62FA3D186
:1001D0003F4FB80A790098A21134697A42677715BF
:1001E00010217060AB9C44776B5035751D10B9962B
:1001F000A18FB6CB96603684D89BB30C8309BB1411
:100200007A92431939B0BFC509C371659E2200DBDC
:100210006ACB7094F9886A00018C01840100009512
:1002200062BEF4B1C467FB020000000004595A0129
:100230000001009503100CF50B0000020002009174
:1002400003100CF50B0000030001009603100CF5E1
:100250000B0000040002007B03100CF50BDE05050B
:100260000001009703100CF50B0000060002007D52
:1002700003100CF50B0000070002009303100CF5AF
:100280000B0000080001009803100CF50B00001291
:100290000002009903100CF50B0000130002009BF4
:1002A00003100CF50B0000140001009D03100CF569
:1002B0000B00001500000000006405A311000004FD
:1002C00000050006000700080009000A000B000CEA
:1002D000000D000E000F0009025B00030100A0FAF0
:1002E000090400000103010100092111010001229C
:1002F000440007058103080001090401000203000E
:1003000000000921110100012222000705820320BB
:100310000001070503032000010904020001030096
:100320000000092111010001226D0007058403204E
:1003300000011201000200000008D4463D460003FF
:10034000010203011C037600690061006C003A00A1
:100350006600360034006300320062003300630040
:1003600000001203740068007200650065006B00F5
:100370006500790000001C0374006C0074007800B4
:100380002F004F0061006B004E0069006E006A0094
:1003900061000000040309040000000000000000E8
:1003A000000000000000000000000000000000004D
:1003B0000000000000000000000000007E0F00D4DC
:1003C000FFFFFFC7000000780000000000000000F1
:1003D0002A2B2800000000000000000000000000A0
:1003E00000000029000000002C1E342021222434AB
:1003F0002627252E362D3738271E1F20212223247D
:1004000025263333362E37381F0405060708090A18
:100410000B0C0D0E0F101112131415161718191AB4
:100420001B1C1D2F3130232D350405060708090A32
:100430000B0C0D0E0F101112131415161718191A94
:100440001B1C1D2F3130354C11241FBECFEFDAE0BD
:10045000DEBFCDBF11E0A0E0B1E0ECEEFDE502C0F3
:1004600005900D92A436B107D9F724E0A4E6B1E0D7
:1004700001C01D92AC3DB207E1F70E9436270C94F3
:10048000A02E0C940000482F2091DA049091910442
:1004900059E0291302C080E0089530E0529FF00136
:1004A000539FF00D1124EE56FB4F8181681306C057
:1004B0008081481303C085818111EECF2F5F3F4FAC
:1004C0002770E7CFE8EDF0E080818E7F8083109287
:1004D000E2001092DA001092E100A0EEB0E08C9100
:1004E00081608C9380818F77808319BCA7EDB0E009
:1004F0008C918E7F8C9380818F7E808310927A0482
:1005000008952091E4003091E50095E6A90120913D
:10051000EC00822F817020FF06C08091E80080FFF0
:1005200006C080E008952091E80022FD1AC0809165
:100530008704882389F0853089F08091EB0085FD60
:100540000FC02091E4003091E50042175307F9F203
:100550009150E1F684E0089582E0089583E00895E3
:1005600081E008958091890487FF13C08091E8009D
:1005700082FF06C08091E8008B778093E80004C07A
:10058000809187048111F2CF089580918704882398
:10059000D9F38091E80080FFF8CF8091E8008E7752
:1005A000ECCF982F9093E900242F762F50E08917F5
:1005B00031F07091EC002091ED005091F00021FDA0
:1005C00007C09F5F973071F78093E90081E008953D
:1005D0003091EB003E7F3093EB003091ED003D7F9A
:1005E0003093ED003091EB0031603093EB0070936D
:1005F000EC002093ED005093F0002091EE0027FDD9
:10060000E0CF80E00895B0E0A0E0E9E0F3E00C94F2
:10061000E32DC8EDD0E088818F7E8883E7EDF0E0A0
:1006200080818160808384E082BF81E080937A044E
:1006300088818E7F888302EE10E0F801108210928C
:10064000DA0081EEC82ED12CF601108288818F77D6
:10065000888388818068888388818F7D888319BC9E
:1006600010928704109288041092860410928504D8
:1006700090EEE92EF12CF70180818B7F80838881B9
:100680008160888342E060E080E00E94D102F60150
:1006900080818E7F8083F80180818160808380816A
:1006A00088608083F70180818E7F8083888180616C
:1006B0008883CDB7DEB7E8E00C94FF2DFC01809174
:1006C0008F049091900486179707A0F0611571052B
:1006D00029F49091E8009E779093E80090E06115EE
:1006E000710551F4911108C08091E80082FF34C077
:1006F00080E00895BC01F2CF809187048823C1F186
:100700008530C1F18091E80083FD30C08091E80020
:1007100082FDEACF8091E80080FFE1CF8091F30075
:100720002091F200382F6115710519F0283031053C
:1007300058F091E02830310509F090E02091E80070
:100740002E772093E800CBCF81918093F100615008
:1007500071092F5F3F4FE7CF80918704882341F0D5
:10076000853041F08091E80083FFBECF81E008959D
:1007700082E0089583E00895089580917C040895AF
:1007800087E797E7909301088093000888E19AE053
:100790000FB6F894A895809360000FBE9093600008
:1007A000FFCF9C014FB7F894809176049091770425
:1007B000A0917804B09179044FBF821B930B0895E8
:1007C0002FB7F89460917604709177048091780443
:1007D000909179042FBF08952FB7F89480917604F3
:1007E00090917704A0917804B09179042FBF089577
:1007F00090910F019923D1F09091730497FF16C047
:10080000E82FE695E695E695EE31E0F4F0E0E25962
:10081000FE4F282F277081E090E001C0880F2A95B5
:10082000EAF780959281892382830895E8E6F1E0D2
:100830009191891303C0DF0111971C9291E0EE366C
:10084000F907B1F7089590910F019923C1F09091A4
:10085000730497FF14C0E82FE695E695E695EE3110
:10086000F8F4F0E0E259FE4F877021E030E001C07B
:10087000220F8A95EAF78281822B82830895A8E667
:10088000B1E0EFEF90E02D91821751F0EF3F19F4B6
:10089000211101C0E92F9F5F9630A9F7EF3F09F4BE
:1008A00008950E2E000CFF0BEA59FE4FE6CFA3E091
:1008B000B0E0EDE5F4E00C94E92D20917104309165
:1008C000720428173907A1F0909372048093710481
:1008D000E0916F04F0917004309751F024E0298387
:1008E0009B838A830084F185E02DCE0101960995D2
:1008F0002396E2E00C94052EA3E0B0E0E2E8F4E0F9
:100900000C94E92D20916D0430916E04281739075D
:10091000A1F090936E0480936D04E0916F04F091C8
:100920007004309751F023E029839B838A830084ED
:10093000F185E02DCE01019609952396E2E00C9415
:10094000052EE0916F04F0917004309729F001902A
:10095000F081E02D0995089580E008954115510535
:1009600011F0FA0109950895CF93DF93EC014091BE
:100970005D0450915E0460915F04709160042FB734
:10098000F8948091760490917704A0917804B091C6
:1009900079042FBF841B950BA60BB70B843F9140A6
:1009A000A105B10518F580915D0490915E04A091B8
:1009B0005F04B09160048093590490935A04A0930B
:1009C0005B04B0935C0484EF91E0A0E0B0E080931E
:1009D000550490935604A0935704B0935804D093B1
:1009E0006504C0936404DF91CF9108950E94E003F1
:1009F0006093590470935A0480935B0490935C0451
:100A000082E390E0A0E0B0E0E2CFFC0184818623A5
:100A100051F492819923B9F06923808583FF05C041
:100A200081E061110FC080E00895892F8F70929549
:100A30009F70982B862F8F7062956F70682B81E066
:100A40009613F1CF089581E0FDCFDC0160914F0452
:100A500080915004962F891301C00895292F30E00A
:100A6000F901EE0FFF1FE95BFB4F408151814A17EF
:100A70005B07A1F487E08A9FA0018B9F500D112492
:100A80004A555C4F81E0FA0184839613E6CF2F5FCD
:100A90003F4F2370332720934F0408952F5F3F4F1C
:100AA000922F9370D8CF1092A4031092A303E6EA7A
:100AB000F3E08581811102C014821682379683E0AB
:100AC000EE3DF807B1F70895B0E0A0E0EAE6F5E002
:100AD0000C94E12D8FEF9FEF4430510508F469C06D
:100AE0004091730441FB882780F990E0880F991F9B
:100AF00042FB002700F910E0000F111F000F111F2B
:100B0000802B912B40FBCC24C0F8D12C8C299D2923
:100B100043FB222720F9C22FE0E0DE2F53E0CC0F69
:100B2000DD1F5A95E1F78C2B9D2B44FBAA27A0F9DA
:100B3000B0E0E4E0AA0FBB1FEA95E1F78A2B9B2BFC
:100B400045FBEE27E0F9F0E0A5E0EE0FFF1FAA95C8
:100B5000E1F78E2B9F2B46FB222720F930E0B6E0F1
:100B6000220F331FBA95E1F7822B932B47FB2227E5
:100B700020F930E03695322F222737952795822BA2
:100B8000932B20917404322F3170F32EE82EF92A22
:100B900026952170B22EBB0CA82EBF28C501BB0C18
:100BA000AA0BBB0BFB0180839183A283B38390E0EC
:100BB00080E0CDB7DEB7EAE00C94FD2D80917B0399
:100BC00090917C0390930C0180930B010895EFEFBB
:100BD000F1E090E080E06FE075E246E355E225E861
:100BE00034E27783668351874087338722879787EC
:100BF0008687019670968830910599F7089581153A
:100C00002CE7920741F42091530430915404232B94
:100C100011F490E080E0089580E0089590917304CD
:100C200092FF10C041E0282F2471243009F040E0E9
:100C300031E0282F2871283009F030E0431711F0F7
:100C40002CE0822793FF10C041E0282F247124312B
:100C500009F040E031E0282F2871283109F030E018
:100C6000431711F02CE082273091740430FF10C03C
:100C700051E0282F2171213009F050E041E0282F68
:100C80002871283009F040E0541711F029E082273C
:100C900031FF10C041E0282F2171213109F040E0DF
:100CA00031E0282F2871283109F030E0431711F086
:100CB00029E0822794FD877E089582389105B9F155
:100CC000B0F48133910509F47DC048F4893291056F
:100CD00009F46DC08A32910509F47BC0089585330B
:100CE000910509F45FC08933910509F10895833EA8
:100CF0009105D9F138F4803E910529F1823E9105A4
:100D000079F10895863E9105D9F1873E910509F460
:100D10003EC0843E910541F52091740421FF24C01A
:100D20008091730484FD19C087EE90E008952091AE
:100D30007304237009F05AC02091740423FF14C077
:100D400089E290E008952091730420FD38C030912D
:100D5000740430FF09C024FF43C090E080E0089590
:100D60002091730422FDF7CF08952091730422FD92
:100D70003AC03091740430FD39C024FFF5CFEDCF77
:100D80002091730423FFF0CF24FDE7CFCDCF209136
:100D9000730423FD2EC03091740431FFEECF84EE36
:100DA00090E008952091730425FFDECFC9CF2091F4
:100DB000730425FD21C02091740423FFD5CF89E35E
:100DC00090E0D2CF2091730426FFCECF8AE290E04C
:100DD00008952091730426FFC7CF81E390E0089522
:100DE00083EE90E0089582EE90E0089580EE90E02A
:100DF000089586EE90E0089585E390E008951F93AE
:100E0000CF93DF930E945D06EC01C11580E5D80702
:100E1000F0F5C11580E4D80708F09CC0C03ED105AC
:100E200020F5CD3CD10508F082C0C83AD10578F450
:100E3000C53AD10508F073C0C130D10519F120972A
:100E400009F1C430D105F0F4D0E0C0E01BC0C33CD0
:100E5000D105D0F7C85AD0E0CC0FDD1FC55EDE4FFC
:100E60000990D881C02DD4640DC0C11580E2D80787
:100E700008F0D1C0C11581E0D80708F05AC0C83EBB
:100E8000D10510F7CE01DF91CF911F910895C036A3
:100E900082E5D80718F5C03482E5D80708F06BC0A2
:100EA000C03282E5D80708F05FC0C11582E5D807D7
:100EB00008F497C02C2F2695269580E2289F900154
:100EC00011248C2F8370C1E0D0E002C0CC0FDD1F55
:100ED0008A95E2F7C22BD32BDD68D4CFC03A82E5E6
:100EE000D80760F4C03882E5D80708F459C0CF713C
:100EF000D0E0DC2FCC27C46FD06AC4CFC03C82E5E1
:100F0000D80708F462C0C03E82E5D80708F09CCF3D
:100F1000DC2FCC27CC27DF71C06FD06AB3CFC55A86
:100F2000D0E0C85EDE4FC881D0E0D064ABCFD065E2
:100F3000A9CF8D2F0E940E06182FCE0199270E944F
:100F40005D06C12FD0E0DC2FCC27CC27DF71C82B6A
:100F5000D92B98CFCE0199270E945D06CC27DF7050
:100F6000C82BD92BD06A8ECFCF71D0E0DC2FCC2705
:100F7000C16FD06A87CF2C2F26952695277080E2E7
:100F8000289F900111248C2F8370C1E0D0E002C013
:100F9000CC0FDD1F8A95E2F7C22BD32BDC6872CF12
:100FA0002C2F26952695277080E2289F90011124EA
:100FB0008C2F8370C1E0D0E002C0CC0FDD1F8A957A
:100FC000E2F7C22BD32BDA685DCF8C2F8F710E9492
:100FD0000E06C82FD0E0DC2FCC27CC27DF71D062E3
:100FE00051CF8C2F8F710E940E0655E0D695C79574
:100FF0005A95E1F7CF70D0E0DC2FCC27282F30E0D6
:1010000084FF05C044E0220F331F4A95E1F7C22B4D
:10101000D32BD06937CF8D2F8F710E940E06182FDA
:10102000CE0199270E945D06C12FD0E0DC2FCC278E
:10103000CC27DF71C82BD92BD2CF8091CD0188234B
:1010400031F01092CD011092CC011092CB01089595
:10105000CF93C82F8091740482FF0CC08091CD0182
:101060008C1741F00E94EC039093CC018093CB014C
:10107000C093CD01CF9108959091CD01292F2823C0
:1010800061F0809589238093CD01882339F00E94F7
:10109000EC039093CC018093CB01089590E080E025
:1010A000F8CF80959091DB0498239093DB0408950A
:1010B000809590915A03982390935A0308959091A4
:1010C0005A03892B80935A0308951092A20110921B
:1010D000A1011092A001089580917D0390917E035B
:1010E000892B89F00E94EC032091CB013091CC0137
:1010F000AC01421B530B81E020917D0330917E03B4
:101100004217530708F480E081700895CF938091CF
:101110005A03C091DB04C82B8091CD018823F9F0DC
:1011200080917D0390917E03892B29F00E946C08A9
:1011300081110E941D088091CD01C82B80910F0163
:101140008823B1F08091730487FF12C08EE120E7FD
:1011500031E090E0815080F491110E941D0880914F
:10116000610480958C2390916204892BCF9108951E
:1011700086E028E631E0EDCFF90141919F0144235B
:1011800049F39F5FE7CF90919F01292F282321F0FA
:101190008095892380939F0108958091DA0490912E
:1011A0009104981301C008958F5F8770FACF911151
:1011B0001DC08330C8F4E3E9F1E050E040E0219144
:1011C00030E0082E02C0369527950A94E2F7217088
:1011D0003327042E01C0220F0A94EAF7922B4F5FA7
:1011E0005F4F4330510559F7892F089590E0FCCFA8
:1011F000911122C0833000F591E001C0990F8A95CA
:10120000EAF7292FE3E9F1E050E040E070E03191A6
:10121000DF011197CB01042E02C0969587950A94A1
:10122000E2F7817081958327822383278C934F5F18
:101230005F4F4330510559F708958093D5010895C4
:101240009091D50121E030E0F90101C0EE0F8A95BF
:10125000EAF7D90102C0AA0FBB1F6A95E2F7EA2B91
:1012600001C0220F4A95EAF7892F8E23E81305C0A3
:10127000292B822F0E941D09089520952923F9CF3B
:1012800021E030E001C0220F8A95EAF72095809195
:10129000D50182230E941D0908959091A201809595
:1012A00089238093A201282F277069F4891759F0A8
:1012B0009091740492FF07C08695869586950E944A
:1012C00040090E946508089521E030E001C0220F26
:1012D0008A95EAF78091D501822B0E941D09089515
:1012E0009091740492FF10C098E0899F900111249E
:1012F000622B6093A2010E9464090E94EC03909308
:10130000A1018093A00108950E946409089580932B
:10131000D401089592959F70963091F058F4925FA1
:101320009F70923058F4803F19F030F4883E30F4CA
:1013300081E008959A5FF4CF843FD1F380E008956F
:10134000883EB0F3813FD1F7F3CF9C013A95211548
:101350003F4150F5FC01EE27F170BC016627727029
:10136000AC01442754709C012227387094FF0EC0B2
:1013700080E1EF2B09F480E0672B09F08062452BB8
:1013800009F08064232B89F08068089581E0EF2BB9
:1013900009F480E0672B09F08260452B09F0846036
:1013A000232B19F08860089580E008950F931F9310
:1013B000CF93DF938B01EA0190918704943061F51C
:1013C0008093E9008FEF9091E800815095FD06C071
:1013D00095ED9A95F1F700008111F5CF8091E80025
:1013E00085FF1AC00E948102811111C08091E8001E
:1013F00085FD06C08091E8008E778093E800F2CFEB
:10140000F80181918F018093F100219779F7809104
:10141000E8008E778093E800DF91CF911F910F91C4
:10142000089543E050E0BC0184E00E94D60908958D
:1014300040E250E0BC0184E00E94D6090895CF93B9
:10144000DF93EC0148E050E0BC0181E00E94D60946
:1014500088E0FE01ADE7B4E001900D928A95E1F7D6
:10146000DF91CF910895019708F40895EFE9FFE027
:101470003197F1F700C00000F6CFCF93C82F6FEF80
:10148000811161E985E290E00E94642E6FEFC11145
:1014900062EF86E290E00E94642E6FEFC1116CEB68
:1014A00087E290E00E94642ECF910895CF93DF935E
:1014B000C5E5D1E060E0CE010E94642E2196C11501
:1014C00084E0D807B9F7DF91CF9108951F93CF93A8
:1014D000DF93122F8430B8F4611115C0433098F4B3
:1014E000C42FD0E0CC0FDD1F96E0899FC00DD11D29
:1014F0001124632FCE0189960E94642E612FCE01A4
:101500008A960E94642EDF91CF911F91089585E203
:1015100090E00E94462E813989F486E290E00E9494
:10152000462E823F59F487E290E00E94462E91E0D9
:101530008C3B09F090E0892F8170089580E0FCCF0A
:101540000F931F93CF93DF93843008F561111FC071
:101550004330E8F4042F10E0000F111F26E0829FB3
:10156000000D111D1124C80189960E94462EC82F16
:10157000D0E0DC2FCC27C8018A960E94462E9E011F
:10158000282BC901DF91CF911F910F91089590E011
:1015900080E0F8CF462F2091E9013091EA01232B1A
:1015A00099F4703F39F4603F79F48091EB019091A8
:1015B000EC010895711108C0633030F4843020F4D8
:1015C00060E00E94A00A089590E080E00895CF9224
:1015D000DF92FF920F931F93CF93DF936C010091E3
:1015E000D5018091D401082BC3E0D0E010E0FC2E9F
:1015F000C8010C2E02C0959587950A94E2F780FDEC
:101600000CC02197A0F7F12C8F2DDF91CF911F9166
:101610000F91FF90DF90CF900895B6018C2F0E941C
:10162000CA0A0E94FF06019761F3EECFCF93DF93C2
:10163000EC010E94E70ABE010E94CA0A0E94FF064E
:10164000DF91CF910895FC018481882371F0878117
:101650009085009729F00E94FF060E948A0908954C
:10166000808191810E94160BF8CF80E00895A6E05A
:10167000B0E0EDE3FBE00C94E82D49835A83498107
:101680005A819923A1F0222391F0CA010E94E70A0E
:10169000182F682F89819A810E94F80869817A81C0
:1016A000812F0E94CA0A2696E3E00C94042ECA01F8
:1016B0000E94D708182FF2CFFC01262F8781908532
:1016C000009741F4408151816281738184819581C9
:1016D0000E94370B08950F931F93CF93DF930BE76F
:1016E00013E0C1E4D0E0CE010E94462EF8016191E2
:1016F0008F01681719F0CE010E94642E2196C5361D
:10170000D10589F7DF91CF911F910F9108950F9324
:101710001F93CF93DF930BE713E0C1E4D0E0CE013A
:101720000E94462EF80181938F012196C536D1057E
:10173000B1F7C9E3D2E0FE0185919491009711F0D1
:10174000FC0109952C96F2E0C93CDF07A1F7DF9177
:10175000CF911F910F9108959B01883070F49AE00A
:10176000899FB00111246B597F4F4AE050E0C901B5
:101770000E94362E90E080E008958FEF9FEF08954D
:10178000AAE0B0E0E6ECFBE00C94E92D9C013755B3
:101790002F3F310509F068F4BE016F5F7F4F0E9453
:1017A000AC0B892B31F489859A852A96E2E00C945A
:1017B000052E8091930390919403F7CF9091740438
:1017C00092FB222720F9281779F080FB92F9909359
:1017D0007404609173047091740484E090E00E943A
:1017E000822E82E00E944D090895DA019C012E5F4D
:1017F0003F4FF90145915491F90125913491A21778
:10180000B30758F0FC013496859194910E94262EDE
:101810000E946B0B90E080E008958FEF9FEF08959A
:10182000DB01FC013296259134914217530758F0A1
:10183000FC01349665917491A901CD010E94262E78
:1018400090E080E008958FEF9FEF0895AAE0B0E068
:10185000ECE2FCE00C94DF2D02EE12E080EDC82EED
:1018600082E0D82E95E0E92EFF24F39427E0922E13
:101870003FECA32E32E0B32E88248394D6010D933F
:101880001D936D014AE050E0B701CE0101960E9420
:10189000362EF8013896DF01892D1D928A95E9F7D9
:1018A00089819A81D80111969C938E938F8112968B
:1018B0008C9312978D8113968C9313978885149629
:1018C0008C931497898515968C9315978B819C81A1
:1018D00017969C938E93169718961C9218978A8544
:1018E00087FF3CC01E961C921E921D9780FF03C06E
:1018F000D80118968C9281FF04C0F80190859260FF
:10190000908782FF07C0D80118969C911897946021
:1019100018969C9383FF04C0F80190859860908787
:1019200084FF07C0D80118969C911897906118966B
:101930009C9385FF04C0F801808580628087015FE9
:101940001F4FFAE0EF0EF11C85E5E81681E0F8067E
:1019500009F094CF2A96ECE00C94FB2DF801B686A2
:10196000A586C4CFAAE0B0E0E8EBFCE00C94E32D40
:10197000EFE7F2E080E5DF011D928A95E9F7E6EAFC
:10198000F3E088E3DF011D928A95E9F78FE7C82E1F
:1019900082E0D82E7F0105EB10E0F701D182C082F2
:1019A0004AE050E0B801CE0101960E94362E88E050
:1019B000FE013196D60101900D928A95E1F7898555
:1019C0009A85D70113969C938E931297BAE0CB0E0B
:1019D000D11CE7E0EE0EF11C065F1F4F0530F1E071
:1019E0001F07D9F62A96E8E00C94FF2DCF93E1E586
:1019F000F1E030E041E021912F3F49F1A22FA29583
:101A0000AF70B0E090968C9190E02F7002C09595E9
:101A100087952A95E2F780FD1AC0842F382B440F52
:101A200081E0E435F80739F78091D301831799F005
:101A30003093D30181E08093D2010E94EC03909314
:101A4000D1018093D001C0E08C2FCF91089580E028
:101A5000E5CFC0E014C0C091D201CC23A1F38091A6
:101A6000D0019091D1010E94D103059760F380913C
:101A7000D3019091E801981761F38093E8011092E7
:101A8000D201E2CF80910F01882359F18091730434
:101A900087FF27C00E94860880936F0140E250E0D4
:101AA00063EA71E08EE691E00E94192E892BC1F065
:101AB00080E2EEE6F1E0A3EAB1E001900D928A95B2
:101AC000E1F7E0916F04F0917004309749F086E0FF
:101AD00080936E010480F581E02D8EE691E00995FA
:101AE00008950E9486088093660148E050E063EC08
:101AF00071E086E691E00E94192E892B89F388E037
:101B0000E6E6F1E0A3ECB1E001900D928A95E1F7F1
:101B1000E0916F04F0917004309711F30280F3812B
:101B2000E02D86E691E0DBCFCF93DF93EC014A8591
:101B30005B856E857F850E94AE048B810E94510873
:101B40008C810E9458080E94420D86E0FE0111928D
:101B50008A95E9F7DF91CF910895CF93DF93EC0158
:101B60008D8181FD14C082608D838091DB049B8117
:101B7000892B8093DB048C810E945F080E94420DB8
:101B8000488559856E857F85CE010E94AE041092EE
:101B90006C0410926B048D8180FD03C0CE010E9405
:101BA000940DDF91CF91089580910D01877F8093EF
:101BB0000D0182E00E94510880910D0184FF06C052
:101BC0008F7E80930D0182E00E945F0880910D015D
:101BD00085FF06C08F7D80930D0180E20E945F0823
:101BE0000E94420D089510925A0380910F0188239C
:101BF000C1F08091730487FF14C0E0E7F1E08EE14B
:101C0000DF011D928A95E9F790E080E00E947C0454
:101C100090E080E00E9457041092DB040E94420D85
:101C20000895E8E6F1E086E0EBCFAAE2B0E0EBE170
:101C3000FEE00C94E82D89E894E02091F100DC01AD
:101C40002D93CD01B4E081399B07B9F780918A04C7
:101C5000833009F472C0B8F4813009F449C082308D
:101C600009F4B3C08091E80083FF96C28091890493
:101C700090918A049A3008F08FC2E92FF0E0EE5577
:101C8000F14D0C94CC2D8A3009F48EC08B3009F4C0
:101C900071C0893039F780918904813219F78091B8
:101CA0008D0490918E04009711F00297D9F68091DF
:101CB000E800877F8093E8008091E80082FF38C0C9
:101CC0009091F3008091F200029731F48091F1003D
:101CD000813011F0863021F48091F10080937C04F2
:101CE0008091E8008B778093E8000E94B202BACF1F
:101CF00080918904813A09F0B5CF8091E800877F0F
:101D00008093E80080918D0490918E04892B61F47A
:101D100068E08DE794E070E00E945E038091E80047
:101D20008B778093E8009ECF60E090E080E0F3CF77
:101D3000809187048111C0CF95CF80918904813A29
:101D400009F090CF80918D0490918E04892B09F039
:101D500089CF8091E800877F8093E8008091E80038
:101D600080FFFCCF80910F018093F1008091E8000B
:101D70008E77B9CF80918904813209F073CF809139
:101D80008D0490918E04892B09F06CCF8091E8002E
:101D9000877F8093E8000E94B20280918B04809339
:101DA0000F010E94F30D5ECF80918904813209F00A
:101DB00059CF8091E800877F8093E8000E94B202AB
:101DC00080918C0480937B044DCF80918904813A6B
:101DD00009F048CF8091E800877F8093E8008091E8
:101DE000E80080FFFCCF80917B04BECF803899F063
:101DF000823809F0D1C180918D048F70873008F04E
:101E0000CBC18093E9008091EB0085FB882780F9A6
:101E10001092E90006C0809185049091860491118A
:101E200082609091E800977F9093E8008093F100A2
:101E30001092F1008091E8008E77AAC1882309F4FE
:101E400098C1823009F0A8C180918B0481119BC197
:101E500080918D048F702FEF280F263008F09CC1E1
:101E60008093E9002091EB0020FF8DC1933031F485
:101E70008091EB0080628093EB0085C19091EB0034
:101E800090619093EB0021E030E001C0220F8A9531
:101E9000EAF72093EA001092EA008091EB00886054
:101EA000EACF811179C110918B041F778091E300F3
:101EB0008078812B8093E3008091E800877F809376
:101EC000E8000E94B2028091E80080FFFCCF809180
:101ED000E30080688093E30082E0111183E0809347
:101EE00087045AC18058823008F056C120918B0473
:101EF00030918C042C3DE3E03E07A1F583E08A831A
:101F00008AE289834FB7F894DE01139620E03EE021
:101F100051E2E32FF0E050935700E49120FF03C01B
:101F2000E295EF703F5FEF708E2F90E0EA30C0F0E7
:101F3000C7968D939D932F5F243159F74FBF8091A2
:101F4000E800877F8093E8006AE270E0CE010196A6
:101F50000E945E038091E8008B778093E8001CC1AB
:101F6000C096E7CF80918D0490918E04432F552722
:101F70004330510509F44AC078F54130510509F460
:101F800085C08BE590E0E7EDF2E04230510509F0C5
:101F900003C12091E800277F2093E80020918F045F
:101FA000309190048217930708F49C0140E02115BA
:101FB000310509F070C041116EC08091E80082FDCA
:101FC000C9CF80918704882329F2853019F2809146
:101FD000E80083FFF2CFBECF4132510509F447C07C
:101FE0004232510509F0D8C08330910508F0D4C0C1
:101FF000FC01EE0FFF1FE95AFE4F0190F081E02D2A
:102000008C5A9E4FDC018C9190E01DC0332721300B
:102010003105E9F02115310579F022303105F9F06B
:102020002330310509F0B8C0E4E4F3E0E4918E2FE9
:1020300090E0E4E4F3E007C0E4E9F3E0E4918E2FFC
:1020400090E0E4E9F3E0009709F4A6C0A2CFE6E748
:10205000F3E0E4918E2F90E0E6E7F3E0F4CFE2E6E0
:10206000F3E0E4918E2F90E0E2E6F3E0ECCF8330F2
:10207000910508F091C0880F991FFC01E35AFE4FAB
:102080000190F081E02D89E090E083CF82E190E043
:10209000E2E3F3E07ECF80918704882309F45ACFEE
:1020A000853009F457CF8091E80083FD53CF8091AC
:1020B000E80082FD82CF8091E80080FF78CF909188
:1020C000F3008091F2002115310519F08830910557
:1020D00050F041E0089709F040E08091E8008E77E9
:1020E0008093E80064CF44914093F10031962150F1
:1020F00031090196E8CF803809F04EC08091E800A0
:10210000877F8093E800809188048093F10092CECD
:10211000811142C010918B041230F0F58091E800DB
:10212000877F8093E800109388040E94B2021123F5
:1021300011F084E005C08091E30087FDFACF81E0D3
:102140008093870442E061EC81E00E94D10242E288
:1021500061EC84E00E94D10242E261EC82E00E94E4
:10216000D10242E260EC83E00E94D10280918704B8
:1021700013C080918B04813079F481E0933009F0B1
:1021800080E0809386041092E9008091E800877FC8
:102190008093E8000E94B2028091E80083FF0AC0A9
:1021A0008091E800877F8093E8008091EB00806257
:1021B0008093EB00AA96E3E00C94042EEBE7F3E0A7
:1021C000128E138E8FEA90E09183808385E0848F56
:1021D00028E833E13383228322E330E0378B268BF8
:1021E00028EC30E0318F208F158E178E168E20E56B
:1021F00030E031A320A382A30E946B0B0E94F30D59
:102200001092740410927304E4E7F4E08081846017
:102210008083609173047091740484E090E00E9464
:10222000822E0E94870B0895AEE1B0E0EAE1F1E171
:102230000C94E12DA0905304B090540481E090E000
:1022400090935404809353048FEBC82E82E0D82ED1
:1022500000E0760110E0F70125913491412F60E014
:10226000802F0E94660A82E0E80EF11C1F5F133087
:1022700091F7E6E0CE0ED11C0F5F043051F70E94BB
:10228000DE101A8219821C821B821E821D82188611
:102290001F8288EC90E09A87898705E610E04AE083
:1022A00050E0B801CE0101960E94882E065F1F4FB4
:1022B000053B1105A1F77E01FBE0EF0EF11C8AE062
:1022C000F70111928A95E9F74AE050E0B801C70199
:1022D0000E94882E065F1F4F0530F1E01F07A1F70F
:1022E0007E0185E1E80EF11C8AE0F70111928A95E2
:1022F000E9F78FEF9FEF9A8F898F87E08E8F4AE003
:1023000050E0B801C7010E94882E065F1F4F0535B7
:10231000F1E01F07A1F7B0925404A09253046E9607
:10232000EAE00C94FD2D80E00E943D0A60E088E226
:1023300090E00E94642E0E9414110E94560A81E0CF
:102340000E943D0A0895CF92DF92EF92FF928FEFA5
:102350009FEF4430510508F46CC0FB01C080D18070
:10236000E280F3800E94F30D80917304C0FA80F93B
:10237000B701A601769567955795479540FB81F97A
:10238000B701A60122E076956795579547952A955E
:10239000D1F740FB82F9B701A60133E07695679546
:1023A000579547953A95D1F740FB83F9B701A601B8
:1023B000E4E07695679557954795EA95D1F740FB08
:1023C00084F9B701A601F5E076956795579547958D
:1023D000FA95D1F740FB85F9B701A601A6E07695FD
:1023E000679557954795AA95D1F740FB86F9B701B0
:1023F000A601B7E07695679557954795BA95D1F7B9
:1024000040FB87F98093730480917404D0FA80F9BB
:10241000D1FACC24C0F8C0FA81F980937404609199
:1024200073047091740484E090E00E94822E90E026
:1024300080E0FF90EF90DF90CF9008950E94F30D21
:102440002FEF84E39CE0215080409040E1F700C0F2
:10245000000088E19AE00FB6F894A8958093600098
:102460000FBE90936000FFCF882321F00E94510897
:102470000E94420D0895882339F09091DB04982B37
:102480009093DB040E94420D0895882321F00E945E
:1024900058080E94420D0895882321F00E945F0889
:1024A0000E94420D0895882309F44DC0823879F4C2
:1024B0000E94A10481FF47C089E30E9423040E9477
:1024C000420D89E30E94F8030E94420D089583386B
:1024D00059F40E94A10480FF36C083E50E942304C2
:1024E0000E94420D83E5EECF843859F40E94A10486
:1024F00082FF29C087E40E9423040E94420D87E4E2
:10250000E1CF9CEF980F913AE8F290E2980F983063
:1025100050F4877091E001C0990F8A95EAF7892FEE
:102520000E945808D1CF9BE5980F933028F490E093
:1025300080E00E947C040895885A8B3120F490E05A
:1025400080E00E9457040895FF920F931F93CF934A
:10255000DF93F82E009166041091670401151105B0
:1025600009F449C010926504109264041092610449
:1025700010926204D8011696CD91DC919E013A9595
:1025800021153F4108F4D07ED1E0C11101C0D0E057
:10259000D8011996ED91FC911A97309731F01B965E
:1025A0006D917C9180E00995D823DD2339F08CEF83
:1025B0008C0F813A30F58C2F0E94F803FF2099F0A0
:1025C000E0916604F0916704808584FD0CC08091E1
:1025D0006304882341F0808191819C01215031095D
:1025E0002F333E47A0F00E94420D109267041092D4
:1025F000660410926304C801CDB7DEB7E5E00C9421
:10260000022E0E94420D8C2F0E945312D7CF0E949F
:10261000B404E9CFCF93DF93EC010E945312CE01B3
:102620000E94A5099E01205E31092830310510F075
:10263000CD2B29F40E944512DF91CF9108950E947D
:102640003412FACFCF93C82F8823C9F08238C9F447
:102650000E94A10481FD13C089E30E9423040E940B
:10266000420D2FEF87EE93E0215080409040E1F73C
:1026700000C0000089E30E94F8030E94420DCF9140
:1026800008958338A1F40E94A10480FDF8CF83E56A
:102690000E9423040E94420D2FEF81EE94E021500E
:1026A00080409040E1F700C0000083E5E4CF84382B
:1026B000A1F40E94A10482FDE2CF87E40E942304DA
:1026C0000E94420D2FEF81EE94E021508040904017
:1026D000E1F700C0000087E4CECF8CEF8C0F813A89
:1026E00088F580910F01882301F18091730487FFA1
:1026F0001CC0EC2FE695E695E695F0E0E259FE4F1A
:10270000828190E04C2F477021E030E002C0220F20
:10271000331F4A95E2F782239323892B79F08C2F7C
:102720000E94F8030E94420D09C0E8E6F1E08191A1
:10273000C817A9F321E0EE36F207C9F78C2F0E94E3
:1027400023049BCF80E28C0F883048F4C77081E06F
:1027500001C0880FCA95EAF70E945F088ECFEBE5AB
:10276000EC0FE33040F4F0E0E85EFE4F808190E053
:102770000E947C0484CFC85ACB3108F080CFEC2F64
:10278000F0E0EE0FFF1FE55EFE4F808191810E9419
:10279000570475CF1F93CF93DF93182FC0919B03DE
:1027A000D0919C03893321F0C0919903D0919A0371
:1027B000812F0E942213209739F4812F0E945312F7
:1027C000DF91CF911F9108958FE99FE00197F1F775
:1027D00000C000002197EFCFB0E0A0E0E2EFF3E10E
:1027E0000C94E12DEC018AE0A82E2881222309F423
:1027F0008FC02130C9F599818A81913021F42296C8
:102800000E94CA1305C0923029F422960E94221316
:102810002196EBCF933021F422960E945312F8CFE9
:10282000943011F02196F4CF229630E020E0AE01F2
:102830004F5F5F4F8053990B8A30910550F02150C4
:10284000310930F38FE99FE00197F1F700C00000F4
:10285000F6CFA29EB001A39E700D11249C01260FFD
:10286000371F8981EA01E3CFE22FF0E0E853FC4F04
:10287000B490822F86958695869590E0FC01E85469
:10288000FC4FE4902770F12C022E02C0F594E794DF
:102890000A94E2F731E0E322FF24FC01E855FC4F03
:1028A000C490D12C022E02C0D594C7940A94E2F7AA
:1028B00031E0C322DD24FC01E856FC4F049110E016
:1028C00002C0159507952A95E2F701701127E114CA
:1028D000F10419F081EE0E942213C114D10419F001
:1028E00086EE0E9422138B2D0E94CA13C114D104BC
:1028F00019F086EE0E945312E114F10419F081EEF2
:102900000E9453120115110509F482CF8CE278CF91
:10291000CDB7DEB7EAE00C94FD2DB0E0A0E0E3E92E
:10292000F4E10C94E12D7C015B01C42FD22FFC015A
:1029300085818823A9F040936A040E94EC03909358
:10294000690480936804C77081E001C0880FCA954C
:10295000EAF70E944C12CDB7DEB7EAE00C94FD2DE9
:1029600010916A04141338C080916804909169042E
:102970000E94D1036C01B701C5010E94C00BC816AB
:10298000D90650F5C0E2CD0F1D17C1F080E2810FCE
:10299000883048F4177081E0012E01C0880F0A9436
:1029A000EAF70E944512C83048F481E09D2F9770E5
:1029B00001C0880F9A95EAF70E944C12802F0E945E
:1029C000CA13C83040F6D77081E001C0880FDA958D
:1029D000EAF70E944512BFCFC77081E001C0880F9F
:1029E000CA95EAF7F6CFCF93DF93EC010E94A509D1
:1029F0009E01205E31092830310510F0209741F406
:102A00000E944C128C2F0E942213DF91CF910895C7
:102A10000E943B12F7CF662329F02091DB0422604D
:102A20002093DB049C0130522115304308F4992790
:102A30000E94F3140895B0E0A0E0E1E2F5E10C9407
:102A4000E32D6C018B01E42E80910D0182FF87C084
:102A5000C091A103D091A203CC15DD0521F0C114D2
:102A6000D10409F07CC080910D018B7F80930D0112
:102A700081FD6EC080919F039091A003A801481B27
:102A8000590B81E020910B0130910C014217530743
:102A900008F480E08170F82E80910D01F0FA81F940
:102AA00080930D01FE0183E0F695E7958A95E1F7A5
:102AB000EE71FF27E55AFC4F20813181AE014F7046
:102AC000552781E090E002C0880F991F4A95E2F7F0
:102AD000FF2009F43FC0822B932B91838083809148
:102AE0005A0381FF08C080910D01806180930D0120
:102AF00082E00E94580880915A0385FF08C08091A7
:102B00000D01806280930D0180E20E9458086F2DB4
:102B1000CE010E940B15EE2031F08091960385FFC7
:102B200002C086FF30C08091990390919A030E9461
:102B3000330A8091A1039091A2039C013052211588
:102B4000304308F499270E940A130E94D40D17C03D
:102B500081E0A0CF8095909582239323BECFC601BC
:102B6000905281159043A0F4C60199270E940A1340
:102B70008091A1039091A2038C159D0531F31093D0
:102B8000A00300939F03CDB7DEB7E8E00C94FF2DC0
:102B9000C601ECCFA7E0B0E0E0EDF5E10C94D92D53
:102BA0007C01DC0114968C91882309F457C161E003
:102BB000C7010E945C0B8C01F7018581882319F104
:102BC00080916B0490916C040097E9F00817190745
:102BD000D1F09927F4E0880F991FFA95E1F7FC01ED
:102BE000EC5FFD4F20812460208381509E4FDC01EB
:102BF0000D931C930E94AD0D1092DB0461E0C701A0
:102C00000E945C0B8C01F7018581882309F4B1C017
:102C1000C80197578038910508F0DEC0D02EFFE03C
:102C2000F01708F40BC18FEF93E00E94462E81113C
:102C300005C105E511E0D11036C019821A821B8248
:102C40001C8299249A9468013FEFC31AD30AC801E1
:102C50000E94462E89831A82882309F4EFC08130AE
:102C600009F081C0580142E0A40EB11CC6010E94C7
:102C7000462EC82E8A83882309F4E0C0C5010E942D
:102C8000462ED82E8FEF8C0D8330D8F4580153E0A8
:102C9000A50EB11CDB82DD2021F0CE0101960E9441
:102CA000EC138501D0CF011524E0120709F4C6C04A
:102CB000C8010E94462E811101C0DA940F5F1F4F98
:102CC000BACF8BEF8C0D833030F5C8010396DB82D1
:102CD0005C01DD2031F35801A4E0AA0EB11C0E9472
:102CE000462E8C838823E9F28B819C818130BFEF53
:102CF0009B0710F0982F8827E6E0CE1631F0F7E01A
:102D0000CF1631F00E94FE24CCCF0E94D924C9CF27
:102D10000E946024C6CF24E0C212C3CF580134E021
:102D2000A30EB11CC80103960E94462EDD2009F4B3
:102D300085C0882309F482C08150990B989E900128
:102D4000999E300D11244D2D4150550BCA01820F13
:102D5000931F019708F4A5CFAFE9BFE01197F1F7F2
:102D600000C00000F6CFCE0101960E94EC13560180
:102D700098CF6801E7E5DE1AFFEFCF16D10409F01E
:102D800058F565EF71E08C2D0E94AC0B892B21F575
:102D9000C60174E0880F991F7A95E1F7FC01E150B4
:102DA000FE4F22812130A1F52091F5013091F601ED
:102DB000232B91F02091F7013091F801232B61F042
:102DC0002091F9013091FA014091FB015091FC01F1
:102DD000242B352B232B21F1D70115965C90552000
:102DE00009F440C00E35BCE71B0729F10F35ECE7AD
:102DF0001E0741F00D35FCE71F07A1F5809100018A
:102E00008823C9F01092000180E00E94A41216C02D
:102E1000223011F72091F9013091FA01232BE1F2D0
:102E2000FC01EC5FFD4F20812E7F208381509E4F5F
:102E30000E94AD0DD1CF81E0809300018091A2016D
:102E4000877061F0D70115968C91882339F08091B5
:102E5000740482FF03C082E00E944D092796E2E1DC
:102E60000C94F52D80910001882309F43CC648019B
:102E700020EE821A91084090CD0180919F01482A4E
:102E800080915A03482A38E08316910408F086C0DE
:102E900098012770332781E090E001C0880F2A95C0
:102EA000EAF7552009F477C0482AD7018D919C9103
:102EB0000E94D70821E030E0390102C0660C771C7F
:102EC0008A95E2F7E0916604F0916704FF83EE8350
:102ED00020908E0130908F011D822D81E22FF0E035
:102EE000EE0FFF1FE053FD4FC080D180C114D1040D
:102EF00009F454C6411005C0D60112968C91811177
:102F000087C0F601838190E086219721892B09F4FF
:102F10007FC08085982F977009F487E0F8E08F16BE
:102F2000910408F055C0552009F44EC08695817073
:102F3000882309F46DC0D601AD90BC900A151B051D
:102F400019F4552009F464C0EE81FF81CE16DF0626
:102F500009F45EC0D6011D96ED91FC91309721F0E9
:102F60008081882309F454C0642DC6010E940505A0
:102F7000882309F44DC00A151B0509F077C6011511
:102F8000110509F478C6511078C6A214B30409F0EB
:102F90003FC0512C72C68095482287CF552009F436
:102FA000E6C510938F0100938E010E94E0036093A9
:102FB0005D0470935E0480935F04909360041092AC
:102FC00065041092640471CF82FB882780F9B0CF2A
:102FD0005520F1F08170ACCF0E9453126DC604975A
:102FE000813A910548F48A2D0E942304552009F462
:102FF0007AC50E94420D22CF0E94420D8FE39CE9C8
:103000000197F1F700C000008A2D0E942213EECF35
:103010009D819F5F9D8361CFFC01208131810217DB
:10302000130709F059C5511059C51092630480E087
:103030000E94A41258C5902F812F94C5F901448590
:10304000558566857785C9010E94AE04D60115961F
:103050008C9181FFB7C5C6010E94940D80916B04CD
:1030600090916C040817190709F0ACC510926C0414
:1030700010926B04A7C590910D01892F8E7F90FF50
:10308000816080930D010E94D40DC7C580910D0110
:103090008E7FF7CF80910D018F7E013E110531F0BB
:1030A000053E1105E9F480910D018F7D80930D019E
:1030B00080910D0180FF19C0D70115968C910832BF
:1030C0001105F0F40E31110508F06BC00430110544
:1030D00048F5882351F01092A2031092A10305C075
:1030E000C80190528115904318F7F801E851FC4748
:1030F000E730F10508F09BC5E455F14D0C94CC2D5B
:103100000933110558F40D32110518F40B3211056D
:1031100001F79091960392FDDCCF08C004361105AB
:10312000C1F3D7CF9091960394FDD3CF882309F4B0
:10313000A6C08091CD0190915A03892B8D7FB1F16A
:103140001092A2031092A1038091960381FD2EC0DC
:10315000F80143E0F695E7954A95E1F7EE71FF2710
:10316000E55AFC4F98012F70332781E090E002C0B0
:10317000880F991F2A95E2F78095909520813181DB
:10318000822393239183808360E0C8010E940B1502
:103190008091CD018D7F0E94280882E00E944D0918
:1031A0004DCE9091960393FD94CFC0CF89E0F70167
:1031B000AAEDB1E001900D928A95E1F71092DD0140
:1031C0001092DC018091A1039091A20308171907C6
:1031D000D1F52091960325FF36C030910D0131FFC6
:1031E00002C026FF30C020919F033091A0035601FA
:1031F000A21AB30AB7010E94C00BA816B90618F5A7
:1032000080915A0381FF08C080910D0180618093F5
:103210000D0182E00E94580880915A0385FF08C082
:1032200080910D01806280930D0180E20E94580818
:1032300060910D01669561708091A1039091A20348
:103240000E940B15FBCD8091CD0190915A03982BD4
:1032500020910D0191FB21F920930D018D7F0E949A
:1032600028081093A2030093A103D092A003C09258
:103270009F0380910D01846080930D018ECF970193
:1032800040E0B601C8010E941B15D8CD06E221EE30
:1032900041EE6AE17CE7C7010E948D14CFCD07E2C1
:1032A00025EE45EE6BE17CE7F6CF06E221EE40EE3F
:1032B00068E17CE7F0CF07E225EE44EE69E17CE7C8
:1032C000EACF06E221EE42EE6CE17CE7E4CF07E2D2
:1032D00025EE46EE6DE17CE7DECF08E221E045EE2B
:1032E0006EE17CE7D8CF8091730481608093730492
:1032F00095C0809174048860809374048FC080911D
:1033000073048260F3CF809173048460EFCF809167
:1033100073048860EBCF809174048160EDCF80915D
:1033200074048260E9CF809173048061DFCF809163
:1033300073048062DBCF809173048064D7CF0E94D6
:10334000F30D809173048068D1CF809173048C60F9
:10335000CDCF809174048360CFCF809173048E7F32
:10336000C5CF80917404877FC7CF809173048D7F10
:10337000BDCF809173048B7FB9CF80917304877F19
:10338000B5CF809174048E7FB7CF809174048D7F08
:10339000B3CF809173048F7EA9CF809173048F7D0A
:1033A000A5CF809173048F7BA1CF0E94F30D8091F4
:1033B00073048F779BCF80917304837F97CF809125
:1033C00074048C7F99CF8091730482FB992790F9C4
:1033D00021E0922790FB82F990FB83F987CF8091BF
:1033E0007404982F909591708E7F892B90FB81F9B2
:1033F00083CF90917304892F8F7B96FF806476CF63
:103400000E94F30D90917304892F97FB87F98058E0
:103410006DCF61E08EE090E00E94642E60917304B5
:103420007091740484E090E00E94822E0E94F30D5B
:1034300005CD60E0EFCF90917304892F8F7E94FFCC
:10344000806154CF90917304892F8E7F90FF8160AB
:103450004DCF90917404892F877F93FF88604CCF64
:103460000631FCE71F07A9F580915A03982F9A7A35
:103470003091950330FF04C0482F447409F090E068
:1034800031FF04C0482F417109F090E032FF04C0C1
:10349000482F487809F090E033FF03C0827209F0AA
:1034A00090E0222361F081E0911101C080E08093DF
:1034B000900189E2911185E30E9423049ACD8091C5
:1034C0009001811104C089E20E94F80392CD85E346
:1034D000FBCF07373CE7130709F45AC008374CE71E
:1034E000140709F460C0222381F003305CE715075C
:1034F00009F479C008F05CC001159CE7190709F4CC
:1035000065C001301C4709F474C0F70187819085BC
:10351000009709F47CC00E94FF06182F092FF701BD
:10352000B580C680C2943FE0C3228091A20187701B
:1035300001F1AB2CBB20F1F0892F807F803461F04A
:1035400080E2810F8830A8F0892F807E803221F4BC
:10355000123078F0CC2069F08091740482FF09C0A9
:1035600082E00E944D098091A2018770AA24A39451
:103570008111A12C902E92942FE09222FBE0F9155C
:1035800008F4B7C0E92DF0E0ED54F14D0C94CC2DCA
:1035900081E0222351F00E94640943E062E081E06F
:1035A0000E9420094BCC82E0F4CF0E944009F5CF65
:1035B0000B35BCE71B0749F10C35ECE71E07D9F0CA
:1035C0000A351C4709F0A1CF81E01CC00E94F30D11
:1035D0002FEF34E34CE0215030404040E1F700C091
:1035E00000000E94C0036FEF7FEF90E080E00E9438
:1035F000822E0E941E128091740482FB882780F91B
:1036000091E089270E94DE0B80CF80E0FBCF85818F
:1036100000811181882369F0C8010E94E70AD82E31
:10362000682FC8010E94F808B8018D2D0E94CA0AAF
:1036300072CFC8010E94D708D82EF6CF202F2F7046
:10364000D22E802F807F19F0D29490EFD922BB2008
:10365000A9F0DD2059F080E2810F883010F01111BF
:1036600007C08D2D0E945F080E94420D812F3FC030
:103670008091DB04D82AD092DB04F6CF812F0E9400
:103680005312DD20B1F180E2810F883010F011116A
:1036900004C08D2D0E94580803C08D2D0E94510832
:1036A0000E94420D26C0302F3F70D32E802F807F86
:1036B000803219F0D29480EFD822112351F01130CA
:1036C00009F498C0BB2009F4A4C0CC2009F448C078
:1036D000CDCF8091740482FD3FC0BB20B9F1DD20C5
:1036E00029F08D2D0E945F080E94420D80E00E940B
:1036F0002213E92DE850FF0B349710F40E94A10427
:10370000812F902F0E948A098111BDC110929201D0
:1037100010929101AA20A9F08091A20180FD11C010
:10372000F70115828695869586950E946409C701E2
:103730000E94CA158091A2018695869586950E9461
:10374000400960E0C7010E945C0B88CB80E00E94CA
:103750005312DD2071F29DCFBB2091F1C11004C046
:103760008D2D0E944C12C5CF41E0C41211C0809033
:10377000CD018D2D8821D81609F4BBCF0E94EC0312
:103780009093CC018093CB01D828D092CD01B1CFBA
:1037900080919703823008F4ACCFC812AACF8D2D48
:1037A0000E944C128D2D0E943C0880919F019D2DFE
:1037B0009823D91609F49DCFD82AD0929F0199CF8A
:1037C000C1100AC08D2D0E9445128D2D0E943C080B
:1037D0008D2D0E94C3088DCF80919703823008F40D
:1037E00088CF51E0C51285CF80915A038D2109F40D
:1037F00080CFE8CF80919D03BB2021F08C1508F489
:1038000078CFAECFC81608F074CF8D2D0E94451228
:1038100070CFCC20D1F380919B0390919C031933FE
:1038200021F08091990390919A030E94330A812F8D
:103830000E9453125ECF802F86958695837069F023
:10384000813009F056CF812F902F9370B11002C0B4
:1038500080E090E00E9457044CCF812F902F93700E
:10386000B11002C080E090E00E947C0442CF802F23
:10387000837091F5B1103DCF412F42954695477029
:10388000440F440F812F8F70042E01C0880F0A94BB
:10389000EAF7212F207114FF07C02FE030E001C0AC
:1038A000220F4A95EAF72095302F369536953370DA
:1038B000323069F050F44091D401313029F0822B3C
:1038C00084230E94870915CF842B822BFACF282BC3
:1038D0008091D4018227F5CF8695BB2011F0802FEF
:1038E0008170882309F405CF412F42954695477092
:1038F000440F440F812F8F70042E01C0880F0A944B
:10390000EAF7212F207114FF07C02FE030E001C03B
:10391000220F4A95EAF72095302F36953695337069
:10392000323069F050F44091D501313029F0822BCA
:1039300084230E941D09DDCE842B822BFACF282BF5
:103940008091D5018227F5CF802F8F70D82EBB2094
:1039500021F00E946409812F04CF812F0E9445121B
:103960008D2D0E944009C5CE123F89F160F4103FB1
:10397000B9F0113F81F0BB2009F480C0C11076CEB0
:10398000802F8F7128C0133F49F1143FA1F7809118
:10399000740482FD2FC0802F8F71BB2011F31BC0D8
:1039A00080919D03BB2079F0C81608F0A2CE202F8D
:1039B0002F7181E090E001C0880F2A95EAF790917D
:1039C000D5018927B6CF8C1508F493CEF0CF802F80
:1039D0008F71B110C6CF0E9464098BCE80E0BB20EE
:1039E00009F4A7CF81E0902F9F7101C0880F9A95AD
:1039F000EAF79FCF80919703823040F1BB20D1F04E
:103A00009091A2019770943041F40E946508802F34
:103A10008F710E944009A12C6CCEC816E0F7902F40
:103A20009F71D92E892F0E94640963E08D2D0E9419
:103A30007009F1CFC81630F00E94650864E0802F4D
:103A40008F71F5CF81E00E944D09E5CFBB2059F081
:103A5000A02FAF71DA2E8A2F0E94640963E08D2DAA
:103A60000E94700946CE81E00E944D09B1E0BC156C
:103A700008F03FCE82E00E944D093BCEC110CBCE74
:103A8000802F8F716ECFBB2019F0C1103FCE42CE78
:103A9000C1103CCE20E0D7014C9111965C9111975A
:103AA00012966C91129713967C91139714968C91A1
:103AB000149715969C910E94370B8091980383FF71
:103AC00025CE8091910190919201029709F01ECE2E
:103AD000812F0E94CA131ACE552029F0DC011896B6
:103AE0008C9185FFA4CAC80197558F3F910511F0AD
:103AF00008F068C0F801FF2754E0EE0FFF1F5A9549
:103B0000E1F79F0121503E4F6901D70115968C9135
:103B1000EC5FFD4F908180FB90F99083882309F43E
:103B20008DCA0E94EC039093D9018093D801F601CD
:103B300082818F5F82838091DB0490915A03892B6D
:103B400083838091CD018483468157816685778503
:103B5000C6010E94AE04D60115968C9181FF6BCAF6
:103B600090E080E090936B0480936C042BC0809174
:103B70008E0190918F010817190781F410928F011F
:103B800010928E0110925D0410925E0410925F04F8
:103B9000109260041092650410926404809166048F
:103BA00090916704009709F49ECFA8E08A169104CB
:103BB00008F032CA642D0E940505811103C081E01E
:103BC0000E94A4128091960380FF8FCA0E94EC038A
:103BD0006C01F7018581882309F45CCA80910D018D
:103BE00082FF08C02AED31E040E0B60190E080E0BD
:103BF0000E941B150431FCE71F0709F447CA053171
:103C00002CE7120709F437CA03313CE7130729F4FC
:103C100080910D01816080930D01C8019052811542
:103C2000904308F045CA1092A2031092A103F70135
:103C30002581222309F414CC10926A04C8019057FC
:103C4000839708F00DCC84E090E00E944E2E909374
:103C5000740480937304F801E150F047E232F105F7
:103C600008F041CBE154F14D0C94CC2DA114B104DA
:103C700009F08BC9512CB12CA12C80E00E94A41218
:103C8000D0926704C092660481E080936304D601F9
:103C900015968C918093610451100EC0AB2861F091
:103CA000F601808191819C0124503109213A31052E
:103CB00008F092C90E94F803D6011696AD90BC9008
:103CC000C5019A9581159F4110F4E0EEBE2277243C
:103CD0007394C50101978F339E4708F0712CD6016C
:103CE0001996ED91FC911A97309731F01B966D91D2
:103CF0007C9181E009957822772079F0F601868120
:103D000097810E94A50980936204C501F8E08F168F
:103D1000910408F064C90E94B4040E94420D66C96F
:103D2000B0E0A0E0E6E9FEE10C94E42D80919C0176
:103D3000807F09F054C080919B01882309F44FC013
:103D4000E091DA0489E0D82E809191048E1709F46D
:103D500046C00E2F10E0ED9DF0011124EE56FB4FF2
:103D60008481882309F440C0D09EE001D19ED00D0B
:103D70001124FE01EE56FB4F91818091970198131B
:103D800033C090818091960198132EC08581811156
:103D90002BC0E280F3808091980190919901E81AFC
:103DA000F90A60E086E991E00E945C0B66E971E047
:103DB0000E94C00BE816F906B8F480919C018F7040
:103DC000806180939C01C856DB4F88818F70806131
:103DD000888386E991E00E94CA150E94CD08CDB77C
:103DE000DEB7E7E00C94002EF8013196E770ACCF17
:103DF000A8E1B0E0EEEFFEE10C94DC2D8C0186E052
:103E0000F801DE01539601900D928A95E1F7D801F1
:103E100014967C9014971596EC9086E9A82E81E074
:103E2000B82E80919A0181112AC0711003C0FF241D
:103E3000F3941CC0EE20F9F0C8010E94230BF82E69
:103E40008823C9F089E0F801A6E9B1E001900D925C
:103E50008A95E1F780919A01813031F48091960141
:103E6000909197010E94160B0E94901E8F2D6896CC
:103E7000EFE00C94F82DC8010E94CA15D8CFF801C4
:103E800050806180C280D38060E086E991E00E942A
:103E90005C0BF0909B0180919801909199014601F3
:103EA000881A990A60E086E991E0FF2009F428C1A8
:103EB0000E945C0B66E971E00E94C00B88169906AF
:103EC00008F0D1C0772009F4B2CF80919C01382F3F
:103ED000307F20919701D80111969C911197311153
:103EE00071C029131FC0209196019C9129131AC0FB
:103EF00040919D0150919E0117962D913C91421742
:103F0000530781F4E11054C08F70806180939C014D
:103F100086E991E00E94CA1580919C01F801868390
:103F2000F12CA4CFE11044C0662D852D0E944302E0
:103F3000E82E882381F08091980380FFF1CF86E9F5
:103F400091E00E94CA1589E0E6E9F1E0DF011D92E7
:103F50008A95E9F7E5CF5B8A6C8A8B899C890E94F8
:103F6000160B292F22952F70243058F49F70223081
:103F700088F0992399F0F8019681907F79F4FE2CCE
:103F800075CF2A5F2F70223068F0C8010E94CA15D1
:103F9000EF2CF5CF992311F0882389F3805E8830C8
:103FA00070F3F3CF803F58F3815F833070F7E7CF32
:103FB00080919C01816080939C018091980381FD98
:103FC000AFCFBDCF291320C0209196019C9129131A
:103FD0001BC040919D0150919E0117962D913C91DF
:103FE00018974217530781F4E1100EC016968C9370
:103FF000C8010E94CA1589E0F801A6E9B1E0019064
:104000000D928A95E1F732CFC8010E94230B8823D5
:1040100009F431CFEE2009F42ECF80919C0180323B
:10402000B8F020919601309197013B872A87DD8671
:10403000CC8690919A019E871F86888B80919D01E6
:1040400090919E019A8B898BCE010A960E94CA1587
:1040500089E0F801A6E9B1E001900D928A95E1F7B7
:104060000E94901EE4CE80919C01982F907F09F4CD
:1040700066CF772009F4DBCE20919701F80191817A
:1040800029131AC0209196019081291315C04091DF
:104090009D0150919E01278130854217530761F49D
:1040A000E1100AC08683C8010E94CA1589E0D501C3
:1040B0001D928A95E9F7DACEC8010E94230B882366
:1040C00009F4D9CEEE2009F4D6CE80919C0180323D
:1040D00008F4BECF20919601309197013A8329834D
:1040E000DC82CB8290919A019D831E828F83809186
:1040F0009D0190919E0199878887CE010196A6CF58
:104100000E945C0B66E971E00E94C00B881699065C
:1041100008F04AC0772009F48ACEFE2CEE2009F47C
:10412000AACE90919701F801818198132FC09091A8
:104130009601808198132AC020919D0130919E01A3
:10414000878190852817390709F58091980190910A
:104150009901C81AD90AF8ECCF16D10408F04BCF50
:1041600090919C0190FD47CF907F09F444CF8091BE
:104170009C01D80116968C931697903F09F438CF7E
:10418000982F907F905F8F70892B30CFC8010E944D
:10419000230B81115DCF80919C01816080939C01F4
:1041A000C8010E94CA1562CE89E0F50111928A9574
:1041B000E9F75CCEA2E1B0E0E0EEF0E20C94E72D8E
:1041C0000A871B872C873D874E875F87688B798B93
:1041D0008A8BCE010A960E94F81E81110CC089E0DC
:1041E000FE013A96DE01119601900D928A95E1F753
:1041F0008E8581110BC019E08091DA0490919104B1
:10420000891331C06296E4E00C94032E209191044E
:1042100030E0C9010196877099274091DA04481768
:10422000190699F099E0929FD001939FB00D112447
:10423000AE56BB4FFE01319601900D929A95E1F773
:10424000809391040E94CD08D6CF0E94F30D109266
:1042500091041092DA0489E0E6E9F1E0DF011D92B1
:104260008A95E9F7C8CF819FC00111248E569B4FD4
:104270000E94F81E882331F28091DA0490E00196C2
:10428000877099278093DA04B7CFEF92FF920F934C
:104290001F93CF93DF938091DE03882361F0E09139
:1042A000A5038DE0F82E8091DE03E81748F0109208
:1042B000DE031092A503CDB7DEB7E6E00C94012E25
:1042C000EE24E394EE0EE092A503CE2FD0E0EF9D16
:1042D000F0011124E152FC4F84818823E9F08781A9
:1042E0009085892B21F481859285019659F400816E
:1042F0001181228133814481558166817781808556
:104300000E94DA20FC9EF001FD9EF00D1124E15286
:10431000FC4F14821092DB04EE2DC5CF1092520494
:104320001092510410920E018091500480934F041A
:104330000E9453050E9445210895B0E0A0E0E3EA01
:10434000F1E20C94DA2DC0914F0497E0992E01E030
:1043500010E02DE0322E34E0432E5524539480910A
:1043600050048C1309C00E9445210E945305CDB70B
:10437000DEB7E1E10C94F62DD0E0FE01EE0FFF1F59
:10438000E95BFB4F80819181989ED001999EB00D91
:104390001124AA55BC4F14962C911497211159C081
:1043A0006090DE03EFEDF3E030E020E0812C5D0172
:1043B000261508F04CC0E384F484D501CD90DC9040
:1043C0006FEF7FEF712C472D50E0DA01AA0FBB1F72
:1043D000AC0DBD1D0D90BC91A02D109731F0EA16CB
:1043E000FB0609F4BA017394EECF6F3F7607A9F18B
:1043F000D80102C0AA0FBB1F6A95E2F78A2AB8014A
:10440000072C02C0660F771F0A94E2F7AB014150F8
:1044100051098416150601F5329EF001339EF00D08
:104420001124E152FC4F989ED001999EB00D1124A9
:10443000AA55BC4F12962D913C9113973087278334
:104440004482108211829287818715965C920E9425
:1044500025052196C37083CF14822F5F3F4F3D9671
:10446000A7CFAEE1B0E0E7E3F2E20C94D92D4B8B9D
:104470005C8B6D8B7E8B8F8B988F882349F080911E
:1044800091019091920101969093920180939101F4
:10449000888D81111092DB04188A198A1A8A86E0A5
:1044A000FE017396DE011A9601900D928A95E1F74E
:1044B0008091740482FF1EC080917D0390917E03E1
:1044C000892BC1F00E94EC032091A0013091A10141
:1044D000821B930B20917D0330917E0382179307FB
:1044E00020F08091A20182FFE7C10E946C08811137
:1044F0000E941D088E85882389F061E0CE010A960E
:104500000E945C0B6C018F8520E5C2162CE7D20659
:1045100089F4882329F181E080930E010A851B85A7
:104520002C853D854E855F85688979898A890E94B9
:10453000DA20CDC031E5C3163CE7D30629F4882341
:1045400079F00E948E21EACF42E5C4164CE7D406EA
:1045500039F4882329F080910E018111F2CFDBCF4D
:1045600096EAE92E93E0F92E412CB12CA12C882457
:104570008394912CBE016F5F7F4F7A8F698F2224C5
:104580002394F7014081518166246A94762C20E0BF
:10459000822F90E0FC01EE0FFF1FE40FF51F6081FA
:1045A00071816115710531F0C616D70609F43C0119
:1045B0002F5FEECF312CFFEF6F167F0609F448C056
:1045C000F701448130900E01832D411180E0F82FD6
:1045D000F1703F2EF701558086819F85992309F45C
:1045E000F7C0332009F4F4C00091910310919203B5
:1045F000511013C0A401062C01C0440F0A94EAF71D
:10460000842B86838091A3039091A4038017910744
:1046100020F41093A4030093A303C40102C0880FE5
:10462000991F2A95E2F70197F701268128171906A5
:1046300079F48091510490915204009709F44BC091
:104640000E94D1030817190708F045C0F70124821A
:104650004328FFEFAF1ABF0A27E0E20EF11C38E053
:10466000A316B10409F08DCF8F85882309F410C1FA
:10467000442009F40DC10E94EC03909352048093EE
:1046800051048091DE03883010F591E0980F9093EB
:10469000DE0399E0FE013A96DE01119601900D923B
:1046A0009A95E1F74DE0849FC001112481529C4FFF
:1046B00029E0FE013196DC0101900D922A95E1F787
:1046C0002FEF3FEFFC0132872187D486C3866E9699
:1046D000E2E10C94F52D80914F0450915004982FF5
:1046E000F0E0E0E0851314C090934F04EE16FF064F
:1046F00009F4AECF90E0FC01EE0FFF1FE95BFB4F2A
:10470000B182A08201968370992780935004A0CF34
:10471000682E712CF301EE0FFF1FE95BFB4F208128
:104720003181F7E0F29FD001F39FB00D1124AA551B
:10473000BC4F2D913C9111973E8F2D8F40E020E092
:1047400030E0E32FF0E0EE0FFF1F6D8D7E8DE60F62
:10475000F71F0081118101151105E1F0F7010190AA
:10476000F081E02DFC8FEB8F20E005C006171707C6
:1047700009F4432D2F5FE22FF0E0EE0FFF1F6B8D4A
:104780007C8DE60FF71F608171816115710571F7EE
:104790003F5FD7CF4423C9F0F701231708F0FD018D
:1047A0002482EE16FF0621F490934F04342E50CF4E
:1047B000981305C0AE17BF0711F49F5F9370930164
:1047C0002F5F3F4F822F83708DCFF0E0E0E0F7CF77
:1047D00090E0511020C0B40102C0660F771F2A95E7
:1047E000E2F79B01215031098217930731F44423EA
:1047F00009F44CC0C5010E942505C401062C01C066
:10480000880F0A94EAF7982F9095F70186818923FB
:104810008683352C1DCFAC01062C02C055954795DB
:104820000A94E2F7BA01617077279C01215031099F
:1048300082239323892B31F5672B21F1F7018281A4
:104840009381892BE1F0E98DFA8D27E011922A9569
:10485000E9F70E94EC03282F8B839C8334E03D838F
:10486000F70182819381782F8887998709811A813E
:104870003C8144E05E816F81892F0E94DA20F7013C
:104880001582BBCFF42FF1705F2EB7CF532CB5CF6D
:1048900090914F0480915004981729F00E949D2117
:1048A000411015CF3BCE0E94452110925204109228
:1048B00051040E945305F4CF82E00E944D0915CEA9
:1048C000A6E0B0E0E6E6F4E20C94E92D9093EC016A
:1048D0008093EB01811520E2920730F40E940A13C5
:1048E0002696E2E00C94052E80EF89838A830E944D
:1048F000EC038160682F9C838B8349815A817C8182
:1049000081E090E00E943122EBCF0F931F93CF9371
:10491000DF938C01EB0165EF71E08C2F0E94AC0BF3
:10492000892BA1F48091990390919A030E94330AF4
:10493000DD27C351DE4F8881F8011282188283304F
:10494000F1F048F4813059F0823081F0DF91CF915D
:104950001F910F9108958430B9F08530B9F7809197
:10496000F5019091F601009789F306C08091F70157
:104970009091F801009799F30E946024E7CF80910D
:10498000F9019091FA01F6CF8091FB019091FC0121
:10499000009791F72091F5013091F6018091F70190
:1049A0009091F80121153105F1F2009729F7C9011D
:1049B000E3CFA6E0B0E0EFEDF4E20C94E92D9093A4
:1049C000EC018093EB01811520E2920730F40E9404
:1049D000F3142696E2E00C94052E80EF89838A83F7
:1049E0000E94EC038160682F9C838B8349815A81EC
:1049F0007C8181E091E00E943122EBCFCF93DF9365
:104A0000EC010E94D9248091990390919A030E940D
:104A1000330ACE010E946024DF91CF9108950F9355
:104A20001F93CF93DF938C01862F65EF71E00E9477
:104A3000AC0B892BB1F4C091F501D091F601209710
:104A400081F0F8018281833051F4CE010E94FE246E
:104A5000CE010E94FE24CE010E94FE2402C08430BA
:104A6000D0F7DF91CF911F910F9108950F931F936E
:104A7000CF93DF938C01EB0165EF71E08C2F0E94E7
:104A8000AC0B892B09F05CC0FE01FF27D801129600
:104A90008C911297E351FE4F8130B9F415969C9199
:104AA00092FF02C080830AC090FFFCCF82E0808327
:104AB0008091F7019091F8010097B9F48091F50188
:104AC0009091F6010097E1F110C08230B9F515968A
:104AD0008C9182FD28C080FD0BC083E08083809193
:104AE000F9019091FA01009701F10E94D92428C0A0
:104AF00084E080838091FB019091FC010097A9F7ED
:104B00008091F5019091F6010097F9F00E94FE2442
:104B10008091F7019091F801009739F78091F501A4
:104B20009091F601E2CF85E080838091F50190912C
:104B3000F601009729F00E94FE24F0CF86E08083E2
:104B4000DF91CF911F910F9108958091F70190917E
:104B5000F801B8CFA6E0B0E0E0EBF5E20C94E72D69
:104B60000E94EC038C018091CE019091CF018017BF
:104B7000910781F019821A820E94EC03682F498103
:104B80005A81792F80E090E00E9431221093CF016A
:104B90000093CE012696E4E00C94032E1F920F9210
:104BA0000FB60F9211242F933F934F935F936F9300
:104BB0007F938F939F93AF93BF93CF93DF93EF93A5
:104BC000FF93D091E900DF708091EC00C82FC17095
:104BD00080FDC0E81092E9008091F000877F80930B
:104BE000F00078940E94150E1092E9008091F00078
:104BF00088608093F000CD2BCF70C093E900FF91C7
:104C0000EF91DF91CF91BF91AF919F918F917F9164
:104C10006F915F914F913F912F910F900FBE0F9029
:104C20001F9018951F920F920FB60F9211242F9379
:104C30003F934F935F936F937F938F939F93AF9324
:104C4000BF93EF93FF938091E10082FF09C08091B1
:104C5000E20082FF05C08091E1008B7F8093E1003C
:104C60008091DA0080FF24C08091D80080FF20C0AE
:104C70008091DA008E7F8093DA008091D90080FFE6
:104C80009DC080E189BD82E189BD09B400FEFDCFF0
:104C900081E08093870480917A04811109C00E9489
:104CA00062020E9403038091E20084608093E2002C
:104CB0008091E10080FF17C08091E20080FF13C067
:104CC0008091E2008E7F8093E2008091E20080611B
:104CD0008093E2008091D80080628093D80019BC54
:104CE00085E0809387048091E10084FF2BC0809150
:104CF000E20084FF27C080E189BD82E189BD89B5DA
:104D0000982F917080FFFBCF8091D8008F7D80938A
:104D1000D8008091E1008F7E8093E1008091E200D5
:104D20008F7E8093E2008091E20081608093E200B8
:104D300080918804882309F447C084E08093870425
:104D4000809187048091E10083FF27C08091E20079
:104D500083FF23C08091E100877F8093E10082E0A0
:104D600080938704109288048091E1008E7F809365
:104D7000E1008091E2008E7F8093E2008091E2006A
:104D800080618093E20042E060E080E00E94D10216
:104D90008091F00088608093F000FF91EF91BF91C7
:104DA000AF919F918F917F916F915F914F913F91C3
:104DB0002F910F900FBE0F901F90189519BC109255
:104DC000870410927A0474CF8091E30087FD93E00A
:104DD00090938704B5CF78941F921FB61F92112429
:104DE0008F939F93AF93BF938091760490917704B4
:104DF000A0917804B09179040196A11DB11D809312
:104E0000760490937704A0937804B0937904BF91CB
:104E1000AF919F918F911F901FBE1F9018951F9269
:104E20001FB61F9211248F939F93AF93BF938091CE
:104E30007504811113C08091760490917704A0913C
:104E40007804B09179044196A11DB11D8093760438
:104E500090937704A0937804B0937904BF91AF91B5
:104E60009F918F911F901FBE1F901895CDB7DEB7F1
:104E7000EF970FB6F894DEBF0FBECDBF85B7806841
:104E800085BF85B7806885BF84B7877F84BF0FB62D
:104E9000F894A895809160008861809360001092DA
:104EA00060000FBE80E890E00FB6F8948093610038
:104EB000909361000FBE8CE096E090936501809323
:104EC00064010E94E7050E94B20C0E94260C0E9419
:104ED000870B0E9462020E9403038091E2008460BB
:104EE0008093E2007894809187048823A1F0109148
:104EF000E9001F709091EC00892F817090FD80E88F
:104F0000182B1092E9008091E80083FD0E94150E95
:104F10001F701093E90082E084BD93E095BD9AEF85
:104F200097BD80936E000E94870A811102C00E9483
:104F30009311A1E5B1E064E571E041E050E08D91AD
:104F40008F3F91F0E82FE295EF70F0E011A18F70A4
:104F50009A0101C0220F8A95EAF7922F909591232A
:104F600091A382A1822B82A36A177B0741F710923B
:104F7000E8011092D30190E080E00E944E2E863E20
:104F80009E4F21F40E94870A811168C066EE7EEF71
:104F900090E080E00E94822E60E082E090E00E943B
:104FA000642E81E08093D40161E083E090E00E9470
:104FB000642E60E074E184E090E00E94822E60E064
:104FC00086E090E00E94642E6FEF87E090E00E9400
:104FD000642E40E050E0BA0188E090E00E94762E16
:104FE00060E084E290E00E94642E60E087E190E05F
:104FF0000E94642E60E08CE090E00E94642E60E0ED
:105000008DE090E00E94642E19821A821B821C821D
:105010001D821E821F82188648E050E068E170E021
:10502000CE0101960E94542E40E050E0BA0180E289
:1050300090E00E94762E80E00E943D0A0E9493112B
:1050400040E050E0BA018FE090E00E94762E40E010
:1050500050E0BA0183E190E00E94762E82E090E079
:105060000E94462E8093D60184E090E00E944E2E4E
:1050700090937404809373040E94F60C8FE39CE970
:105080000197F1F700C000000E94F60C8091E80142
:1050900080FF08C06FEF7FEF90E080E00E94822EDB
:1050A0000E94C00383E090E00E94462E0E94870980
:1050B00081E091E09093700480936F0468E1662E24
:1050C000712C2E019BE2490E511CFE0131967F018D
:1050D0009E012D5F3F4F3BAF2AAF8091870400E1D7
:1050E00012E1853009F438C10E94F60C8091D70195
:1050F0001091E80181133AC10E94AA2580916404AD
:1051000090916504892B09F43EC040915904509157
:105110005A0460915B0470915C042FB7F8948091FD
:10512000760490917704A0917804B09179042FBF10
:10513000841B950BA60BB70B409155045091560458
:10514000609157047091580484179507A607B70714
:10515000D0F080916404909165040E94F314109241
:105160006504109264041092590410925A0410922B
:105170005B0410925C041092550410925604109235
:1051800057041092580400916B0410916C0401159F
:10519000110539F18091D8019091D9010E94D10374
:1051A0006C0189E0F20111928A95E9F7B201C80118
:1051B0000E94C00B8C159D05A0F480916B0490910A
:1051C0006C04992754E0880F991F5A95E1F7FC0168
:1051D000EC5FFD4F208122FD04C081509E4F0E9454
:1051E000AD0D80910E01882301F1809151049091C1
:1051F00052040097D1F00E94D1032091A303309173
:10520000A4032817390788F490914F048091500423
:10521000981709F4D2C00E949D211092A403109205
:10522000A30310925204109251048091960380FFC0
:105230001EC080910D0182FF1AC00E94EC032091D4
:105240009F033091A003AC01421B530B20910B0133
:1052500030910C014217530750F02AED31E041E044
:10526000BC018091A1039091A2030E941B150E9492
:10527000A1049091E301891721F08093E3010E943A
:10528000E00380918704843009F027CF83E0809386
:10529000E9008091E80082FF20CF8091E80090E053
:1052A00085FF06C00E948102882309F48FC091E027
:1052B0008091E8008B778093E800992309F40DCF63
:1052C0000091E9011091EA0189810115110509F4A4
:1052D0009AC08E3F09F01EC18A81833020F085502C
:1052E000833008F017C1EA81EE3008F013C1F0E016
:1052F000EF51F14D0C94CC2D80918704843011F145
:105300001092750430E40FB6F894A895609260008E
:105310000FBE3093600083B7817F846083BF83B703
:10532000816083BF7894889583B78E7F83BF0FB6E3
:10533000F894A89580916000886180936000109235
:1053400060000FBE80918604882331F00E94F60C25
:105350008091E8018111D4C380918704853009F4DC
:10536000CBCF0E94F30D0E94A104BECEC82EC12651
:1053700000E0DD24D394BB24B3948C2D8D21A1F0C7
:105380000CAB1DAA0E94EC039FAB8EABB8AE91E0B4
:10539000812F8D2109F490E099AF4CA95DA96EA9E8
:1053A0007FA988AD0E9431220F5FDD0C033029F701
:1053B0001093D7010E94E003A1CE0E9445211092D4
:1053C0005204109251040E9453052FCF00E210E0C6
:1053D0009E012F5F3F4F69018091E80085FD0AC063
:1053E0008091E8008B778093E8000E9481028823F7
:1053F00099F35DCF8091F100F60181936F01015027
:10540000110951F754CF8C3009F4BCC070F58430C9
:1054100009F49FC050F4823009F46BC008F08AC0D0
:10542000813009F462C08FEF90C3863009F4A7C0C1
:1054300008F49AC08B30B9F78091530490915404CA
:10544000892B09F467C040E250E0BE016F5F7F4FD7
:1054500082E00E94D6092FEF31EE44E02150304027
:105460004040E1F700C000001BCE803109F4B9C014
:1054700080F58E3009F48DC008F487C08091530404
:1054800090915404892B09F445C00C8110E00D3132
:10549000110508F03FC0CA80DB80DC24CD24DC2469
:1054A00057010E0D1F1DC6018B5A9E4FA016B10647
:1054B00089F13BEAC31632E0D30620F4F50164819A
:1054C0000E94642EFFEFAF1ABF0A2FEFC21AD20A52
:1054D000EACF823109F48AC008F486C0833109F426
:1054E000ADC08E3F09F09FCFFECE1A8289E08B833C
:1054F00011C08A81823009F447C3833091F0813032
:1055000009F091CF0E94E0030E94D22D6B837C832F
:105510008D839E8340E250E0B70182E00E94D6096D
:10552000DCCD8091530490915404892B99F38091A0
:10553000E801DDCF8A81823009F075CF6B817C81F3
:105540008D819E810E94D22D88E290E00E94642E7F
:10555000E1CF4C816B818A810E94A00A982789271C
:1055600098279E838D83D6CF2D813E813227232796
:1055700032274C816B818A810E94660ACBCF0E94C0
:105580001411C8CF80E18A83C5CF82E08A838BEA79
:10559000AECF0C8110E00D31110508F0BBCFCA80F1
:1055A000DB80DC24CD24DC2457010E0D1F1DC60139
:1055B0008B5A9E4FA016B10609F4ACCFFBEACF166A
:1055C000F2E0DF0658F40E94462EF5018483FFEFD7
:1055D000CF1ADF0A2FEFA21AB20AE9CFF50114821F
:1055E000F6CF0E94560A96CF84E0CDCF0C8110E012
:1055F0000D31110508F08ECFAA80BB80BA24AB24F0
:10560000BA24CE0101966C01080F191FC5018996B5
:10561000C016D10609F47ECFE8E1AE16B10458F405
:105620000E94462EF6018483FFEFAF1ABF0A2FEFC8
:10563000C21AD20AEBCFF6011482F6CFCC80D12C5D
:105640003DE1C316D10408F065CF0A811B81102704
:10565000012710270831110508F05CCFC301801B1A
:10566000910B8C159D0508F455CFC80189969FAF05
:105670008EAF809153049091540418012C0C3D1C62
:10568000892BC1F5580191E0A922BB2400FF0DC070
:10569000C80188960E94462E9D81892798278927D0
:1056A00081159C4711F48FEF8D83460120FE1BC0AE
:1056B000F1E08F1A910825E030E02C0F3D1F280DF6
:1056C000391D3DAF2CAF8EAD9FAD8C0D9D1D0E9441
:1056D000462EECADFDAD908181159C4721F48FEFF6
:1056E000ECADFDAD8083F701EA0DFB1D2FEFA81493
:1056F000B90410F0670118C09481858181159C4719
:1057000011F42483258342E0A40EB11C3296EFCF1E
:105710000831110520F4F60164810E94642EFFEF28
:10572000CF1ADF0A0F5F1F4FC801899602151305B4
:1057300079F7F0CE88E0E0E1F1E0DE0191960190AA
:105740000D928A95E1F780E2F70111928A95E9F7C7
:1057500086E0898388E0FE01B196DE01159601900E
:105760000D928A95E1F7D6CE80EB89831A821B824F
:105770001C82D0CE8C81682F70E0762F66278B81BB
:10578000860F972F911D092E000CAA0BBB0B45E02D
:10579000880F991FAA1FBB1F4A95D1F7AC01BD0105
:1057A000405E5F4F6F4F7F4F481759076A077B076F
:1057B00008F4B0CE803B9105A105B10508F0AACE52
:1057C000413B51056105710520F040EB50E060E080
:1057D00070E0481B590BBC0161587E4FC7010E9405
:1057E000102E98CE4AE150E06FEF70E0CE010796A0
:1057F0000E942F2E8091530489830A831B821C826E
:105800001D8281E08E8386CE81E090E09093EA0154
:105810008093E90182E390E09093E7018093E601B1
:105820000E94EC039093E5018093E40173CE012B79
:1058300051F11091E8018091E4019091E5010E94FD
:10584000D1038536910540F111FF26C010FF24C019
:105850000E94EC039093E5018093E4018091E601BE
:105860009091E70101979093E7018093E601892BDE
:1058700051F41092EA011092E90181E090E09093D6
:105880005404809353048091530489838091E901E7
:105890008A838091E6012BCE82E390E09093E7012A
:1058A0008093E601F0CF109254041092530432CE4C
:1058B0000B811C8140E250E06FEF70E0C7010E9455
:1058C0002F2E2FE232E090E080E0AC014E5F5F4F80
:1058D0004132510508F01ECEF90165917491061709
:1058E000170730F48E0D9F1DFC0171836083CA0180
:1058F000245F3F4FF2E02F3B3F0739F70BCE2B8160
:105900003C818FE292E0FC014591549124173507C8
:1059100009F40CC10C9642E08F3B9407A1F783CDAC
:105920008B819C810FE212E0F8012591349182175E
:10593000930709F40CC1045F1F4FF2E00F3B1F07F0
:1059400099F7CC24CA94DC2C1DC10E94DE10E2CD54
:10595000EB81E73008F0DECDF0E0E151F14D0C9441
:10596000CC2D8EE1EAADFBAD11928A95E9F788E086
:1059700089838A83BCCD8C819AE0D92E8E010F5DFC
:105980001F4FF8012D2D11922A95E9F7B8010E94B9
:10599000AC0B8983F801DE01129601900D92DA9426
:1059A000E1F7B8CD1C818AE0FE013596DE019196C3
:1059B00001900D928A95E1F789A19AA10E94FF05B5
:1059C0009AA389A38BA19CA10E94FF059CA38BA3F2
:1059D0008DA19EA10E94FF059EA38DA38FA198A5D6
:1059E0000E94FF0598A78FA38FEF183068F43AE064
:1059F000139FB00111246B597F4F4AE050E0CE0154
:105A000081960E94882E80E089830E94E70582CDDE
:105A10006C812AE0CE018196FC01322F11923A95D9
:105A2000E9F7683008F046C0629FB00111246B545A
:105A30007F4F4AE050E00E94362E80E089838AE062
:105A4000FE01B196DE0112968ACE1C818AE0FE012B
:105A50003596DE01919601900D928A95E1F789A520
:105A60009AA50E94FF059AA789A78FEF183068F4BE
:105A70004AE0149FB00111246B547F4F4AE050E07C
:105A8000CE0181960E94882E80E089830E94B20C0C
:105A900041CD6C812AE0CE018196FC01322F11921A
:105AA0003A95E9F7683030F4629FB00111246B5FDA
:105AB0007E4FBFCF8FEFC2CF1C818AE0FE013596AB
:105AC000DE01919601900D928A95E1F78BA19CA140
:105AD0000E94FF059CA38BA38FEF183068F44AE067
