:100000000C9424020C9441020C9441020C94410281
:100010000C9441020C9441020C9441020C94410254
:100020000C9441020C9441020C9416330C94EA3364
:100030000C94922D0C9441020C9441020C944102B8
:100040000C9441020C9441020C9441020C94410224
:100050000C9441020C94352E0C9441020C944102F4
:100060000C9441020C9441020C9441020C94410204
:100070000C9441020C9441020C9441020C944102F4
:100080000C9441020C9441020C9441020C944102E4
:100090000C9441020C9441020C9441020C944102D4
:1000A0000C9441020C9441020C944102040005009E
:1000B00006000700080009000A000B000C000D00F4
:1000C0000E000F00FD377A585A000004E6D6B446F9
:1000D0000200210116000000742FE5A3E000830058
:1000E000705D003D8889C65436C3174FE4FA83B863
:1000F000538367100EC606482F30C62CDFBDB937B4
:100100004EF595B2E03C436DA84430EFD0719F248A
:1001100025E62FA3D13F4FB80A790098A211346980
:100120007A4267771510217060AB9C44776B50352D
:10013000751D10B996A18FB6CB96603684D89BB347
:100140000C8309BB147A92431939B0BFC509C37136
:10015000659E2200DB6ACB7094F9886A00018C01ED
:10016000840100009562BEF4B1C467FB0200000088
:100170000004595A010001000F05B219E4190000EA
:10018000020002000B05B219E4190000030001008F
:100190001005B219E419000004000200F504B219B8
:1001A000E419AB19050001001105B219E4190000AA
:1001B00006000200F704B219E4190000070002006B
:1001C0000D05B219E4190000080001001205B2196A
:1001D000E4190000120002001305B219E41900002E
:1001E000130002001505B219E41900001400010003
:1001F0001705B219E4190000150000000000B81836
:100200003219000000000000000000002A2B280026
:1002100000000000000000000000000000000029B5
:10022000000000002C1E3420212224342627252EF5
:10023000362D3738271E1F2021222324252633332D
:10024000362E37381F0405060708090A0B0C0D0E59
:100250000F101112131415161718191A1B1C1D2F25
:100260003130232D350405060708090A0B0C0D0E45
:100270000F101112131415161718191A1B1C1D2F05
:100280003130354C0000000000000000000000008C
:10029000000000000000000000000000000000005E
:1002A00000000000000000007E0F00D4FFFFFFC729
:1002B000000000781C037600690061006C003A00C1
:1002C00066003600340063003200620033006300D1
:1002D00000001203740068007200650065006B0086
:1002E0006500790000001C0374006C007400780045
:1002F0002F004F0061006B004E0069006E006A0025
:10030000610000000403090409025B00030100A06E
:10031000FA09040000010301010009211101000193
:1003200022440007058103080001090401000203BB
:1003300000000009211101000122220007058203AB
:100340002000010705030320000109040200010346
:10035000000000092111010001226D00070584033E
:100360002000011201000200000008D4463D4600B2
:1003700003010203010660FF0961A1010962150082
:1003800026FF009520750881020963150026FF00ED
:10039000952075089102C005010980A10185031906
:1003A000012AB700150126B700950175108100C01C
:1003B000050C0901A101850419012AA002150126D5
:1003C000A002950175108100C005010906A10185F3
:1003D00006050719E029E715002501950875018133
:1003E000020507190029EF1500250195F075018117
:1003F00002050819012905950575019102950175F8
:10040000039101C005010906A101050719E029E7CB
:100410001500250195087501810295017508810176
:100420000507190029FF150026FF009506750881AC
:10043000000508190129051500250195057501918B
:1004400002950175039101C011241FBECFEFDAE0C0
:10045000DEBFCDBF11E0A0E0B1E0E6E7FDE602C0FF
:1004600005900D92A83AB107D9F725E0A8EAB1E0C6
:1004700001C01D92AA32B207E1F70E944B140C94FE
:1004800065360C940000843090F4611110C0433044
:1004900070F4E42FF0E093E0899FE00DF11D11244A
:1004A000EE0FFF1FE455FF4F85919491089581E071
:1004B00090E008959C013A9521153F4150F5FC01CB
:1004C000EE27F170BC0166277270AC0144275470AE
:1004D0009C012227387094FF0EC080E1EF2B09F4B5
:1004E00080E0672B09F08062452B09F08064232BA4
:1004F00089F08068089581E0EF2B09F480E0672B94
:1005000009F08260452B09F08460232B19F0886084
:10051000089580E00895CF93DF93EB010E945A0283
:10052000FE010995DF91CF910895CF93DF93EC0100
:10053000805E9109089720F061EB75E0209711F437
:1005400063EA75E0CE010E948B028C2F0E94A80402
:10055000DF91CF910895CF93DF93EC010E942D0599
:10056000CE01805E9109089720F068EB75E0209736
:1005700011F46AEA75E0CE010E948B02DF91CF91FF
:10058000089581E008950E94C102089581E00895D0
:100590000E94C10208950E94C802089508950E9411
:1005A000CE020895A6E0B0E0E8EDF2E00C94AD359F
:1005B00049835A839E833091AF0189819A81311199
:1005C0001AC03E81332399F0222389F00E949209B8
:1005D000182F682F89819A810E94770969817A8111
:1005E000812F0E942E122696E3E00C94C9350E94BA
:1005F0008409182FF3CF0E94920969817A81F1CF83
:10060000FC01262F87819085009741F4408151811C
:1006100062817381848195810E94D20208950F9333
:100620001F93CF93DF93EC0161E00E9400038C01E4
:10063000BE010E94C302882351F0BE01C8010E947E
:10064000431F8170DF91CF911F910F91089580E03A
:10065000F8CFCF93DF93EC0160E00E940003BE016E
:100660000E94CF02DF91CF91089581E008950E940A
:1006700035030895CF93C82F0E94D1058C2F0E9477
:1006800037032FEF84E39CE0215080409040E1F756
:1006900000C00000CF91089581E00E943A030E94BB
:1006A000592E089580E00E943A030E946A2E089510
:1006B0000F931F93CF93DF93EC018B010E94672967
:1006C000882329F061E0C8010E940003EC01B80111
:1006D000CE010E94DB2A811106C080E0DF91CF911C
:1006E0001F910F910895B801CE010E946A188823C6
:1006F000A1F3B801CE010E94CB02882371F3B801A7
:10070000CE010E941F25882341F3B801CE010E942B
:100710008F29882311F3B801CE010E947C1C882305
:10072000E1F2B801CE010E94E0288823B1F2B801BD
:10073000CE010E94CE26882381F2B801CE010E940C
:10074000C023882351F2B801CE010E942D2A8823AC
:1007500021F2F8018581882361F0C330FCE7DF07CF
:10076000E9F058F4C115ECE7DE07A9F0C130DC4729
:10077000B9F0C8010E94C602B1CFCB358CE7D807CB
:10078000A9F0CC35ECE7DE0771F0CA35DC4789F714
:100790000E948B0FEECF0E944C039FCF0E94930FBD
:1007A0000E9452039ACF0E94810FE3CF0E948F0FC5
:1007B000E0CFCF93DF93EC0161E00E940003BE0124
:1007C0000E945803DF91CF9108950E94742D0E94DA
:1007D0001D0408950E9421040E94792D0895982FE8
:1007E00092959F7011F0892F94E0282F26952695D9
:1007F00011F09E5F822F869509F09F5F892F0895E3
:10080000089581E008950895CF93DF93D82F0E9433
:100810000104C82F882319F08D2F0E9403048C2F08
:10082000DF91CF9108950895CF93C82F0E940004BF
:100830008C2F0E940404CF91089580E00E9414043C
:1008400008950E94EC2B0E9414040895CF930E94F7
:10085000EC2BC82F8091AA018C1779F0C093AA01C4
:100860000E94FE2D6093AB017093AC018093AD01AB
:100870009093AE018C2F0E941404CF91089501979C
:1008800008F40895EFE9FFE03197F1F700C00000A8
:10089000F6CFAFE0B0E0EFE4F4E00C94AC354A877B
:1008A0005B876C877D878E879F87882349F080913F
:1008B000B0019091B10101969093B1018093B00184
:1008C0008F8581110E94260E1F821886198686E068
:1008D000FE013A96DE01119601900D928A95E1F79C
:1008E0008091A00482FF12C08091F7049091F804D7
:1008F000892B61F00E94E20D882319F082E00E94AA
:10090000550F0E94BE0D81110E949F0E8D81811195
:100910000FC009811A812B813C814D815E816F81DD
:10092000788589850E942F0D2F96E4E00C94C835B8
:10093000CE0101960E940F038111EBCFF5CFFC0190
:100940002481213021F4808191810E94BF09089582
:10095000CF93C82F8823C9F08238C9F40E94F92B9D
:1009600081FD13C089E30E940A2D0E941B0F2FEF07
:1009700087EE93E0215080409040E1F700C00000F6
:1009800089E30E94212D0E941B0FCF910895833887
:10099000A1F40E94F92B80FDF8CF83E50E940A2D77
:1009A0000E941B0F2FEF81EE94E021508040904079
:1009B000E1F700C0000083E5E4CF8438A1F40E9491
:1009C000F92B82FDE2CF87E40E940A2D0E941B0FC3
:1009D0002FEF81EE94E0215080409040E1F700C07D
:1009E000000087E4CECF8CEF8C0F813A70F48C2F0F
:1009F0000E94812C882329F08C2F0E94212D0E9497
:100A00001B0F8C2F0E940A2DBECF80E28C0F8830E6
:100A100048F4C77081E001C0880FCA95EAF70E94C8
:100A2000060EB1CFEBE5EC0FE33040F4F0E0E75A0F
:100A3000FE4F808190E00E94152CA7CFC85ACB3181
:100A400008F0A3CFEC2FF0E0EE0FFF1FED5DFE4F9F
:100A5000808191810E943A2C98CF882309F44DC05F
:100A6000823879F40E94F92B81FF47C089E30E9404
:100A70000A2D0E941B0F89E30E94212D0E941B0F4B
:100A80000895833859F40E94F92B80FF36C083E51E
:100A90000E940A2D0E941B0F83E5EECF843859F483
:100AA0000E94F92B82FF29C087E40E940A2D0E9430
:100AB0001B0F87E4E1CF9CEF980F913AE8F290E2A8
:100AC000980F983050F4877091E001C0990F8A9583
:100AD000EAF7892F0E940C0ED1CF9BE5980F933037
:100AE00028F490E080E00E94152C0895885A8B31FC
:100AF00020F490E080E00E943A2C08951F93CF9359
:100B0000DF93182FEB010E94A804209739F4812F5E
:100B10000E942D05DF91CF911F9108958FE99FE0ED
:100B20000197F1F700C000002197EFCF6091150504
:100B300070911605893321F06091130570911405A9
:100B40000E947E050895882321F00E94060E0E94CF
:100B50001B0F0895882321F00E940C0E0E941B0F8A
:100B60000895882321F00E94190E0E941B0F0895FA
:100B7000882321F00E941F0E0E941B0F089590E011
:100B800080E00E94152C90E080E00E943A2C0E94A8
:100B9000260E0E941B0F08950E94382D0E94BF054B
:100BA00008950E94130E0E94CC05089592959F709F
:100BB000963091F058F4925F9F70923058F4803FD5
:100BC00019F030F4883E30F481E008959A5FF4CF54
:100BD000843FD1F380E00895883EB0F3813FD1F7A0
:100BE000F3CFFC018481882371F087819085009781
:100BF00029F00E9410110E94D605089580819181EC
:100C00000E94BF09F8CF80E00895B0E0A0E0EBE0DB
:100C1000F6E00C94A7356C01EB01FC01F580068130
:100C200002950F700E94FC0DE82E8823F9F0EF2C3E
:100C3000FF20E1F08D2F807F803461F080E28C0F07
:100C4000883010F18D2F807E803221F4C230E0F0A8
:100C50000023D1F08091A00482FF16C082E00E94A0
:100C6000550F0E94FC0D91E0E82EE926BD2EB294AE
:100C70008FE0B822FBE0FB1508F463C0EB2DF0E039
:100C8000E959F94C0C949135E12CF0CF1D2F1F70D0
:100C90008D2F807F11F01295107FFF2099F0112386
:100CA00059F080E28C0F883010F0C11107C0812FFD
:100CB0000E94060E0E941B0F8C2F3BC0812F0E94AA
:100CC000190EF8CF8C2F0E942D051123D1F180E24F
:100CD0008C0F883010F0C11104C0812F0E940C0EBF
:100CE00003C0812F0E941F0E0E941B0F2AC01D2FC0
:100CF0001F708D2F807F803211F01295107FCC23D2
:100D000051F0C13009F480C0FF2009F48CC00023E9
:100D100009F446C0D1CF8091A00482FD3DC0FF20E0
:100D200059F0112329F0812F0E94060E0E941B0FFB
:100D300080E00E94A80405C080E00E942D051111EA
:100D4000CCCF2B2D2850330B2430310520F40E94BA
:100D5000EC2B0E941404CE010E94D60581118CC197
:100D60001092B1011092B001EE2089F00E94DE0DC8
:100D700080FD0DC0F60115820E94D80D0E94EB087F
:100D8000C6010E947D080E94D80D0E94F708CDB7C9
:100D9000DEB7E9E00C94C335FF20E1F0011104C097
:100DA000812F0E94A305CDCF013021F4812F0E9415
:100DB000580EC7CF80911105823018F28013C1CF31
:100DC000812F0E94A305812F0E946F0E812F0E9408
:100DD0003C0EB7CF01110AC0812F0E94AA05812FB6
:100DE0000E946F0E812F0E94480EABCF809111059B
:100DF000823008F4A6CF013009F0A3CF0E94030E81
:100E0000812309F49ECFE8CF80911705FF2021F0C0
:100E1000801708F496CFC4CF081708F092CF812F1F
:100E20000E94AA058ECF0023D1F3809115059091E1
:100E30001605C93321F080911305909114050E9485
:100E40003F048C2F0E942D057CCF8D2F8695869593
:100E5000837061F0813009F074CFCE019370F1108E
:100E600002C080E090E00E943A2C6BCFCE019370DC
:100E7000F11002C080E090E00E94152C62CF8D2F0F
:100E8000837081F5F1105DCF4C2F429546954770E8
:100E9000440F440F8C2F8F70042E01C0880F0A94CA
:100EA000EAF72C2F2071C4FF07C02FE030E001C00B
:100EB000220F4A95EAF720959D2F96959695937067
:100EC000822B923049F058F4913019F00E94C708F3
:100ED00038CF0E94C10835CF0E94CD0832CF0E9482
:100EE000BE082FCF8695FF2011F08D2F81708823AB
:100EF00009F427CF4C2F429546954770440F440F75
:100F00008C2F8F70042E01C0880F0A94EAF72C2FC3
:100F10002071C4FF07C02FE030E001C0220F4A95C6
:100F2000EAF720959D2F969596959370822B923097
:100F300049F058F4913019F00E94160902CF0E942E
:100F40001009FFCE0E941C09FCCE0E94D908F9CEE0
:100F50001D2F1F70FF2029F0812F0E94EB088C2F7E
:100F600020CF8C2F0E94AA05812F0E94F708E9CE7E
:100F7000C23F51F160F4C03FB9F0C13F81F0FF20A2
:100F800009F475C0011198CE8D2F8F7121C0C33F18
:100F900011F1C43FA1F78091A00482FD26C08D2FDE
:100FA0008F71FF2011F314C080911705FF2041F0CD
:100FB000081708F0C6CE8D2F8F710E940409C1CE8C
:100FC000801708F4BECEF7CF8D2F8F71F110CDCFE3
:100FD0000E94EB08B6CEFF2029F08D2F8F710E9462
:100FE000E208AFCE0E94DE08ACCE809111058230BF
:100FF00040F1FF20D1F00E94DE0D843041F40E94C8
:101000004B0F8D2F8F710E94F708E12C9ACE8091A3
:1010100011050817D0F71D2F1F71812F0E94EB08B3
:1010200063E0812F0E942D0FF0CF081730F00E944F
:101030004B0F64E08D2F8F71F5CF81E00E94550F2B
:10104000E4CFFF2051F01D2F1F71812F0E94EB086C
:1010500063E0812F0E942D0F74CE81E00E94550F16
:10106000023008F46ECE82E00E94550F6ACE011164
:10107000DCCE8D2F8F7179CFFF2019F0011170CE4A
:1010800073CE01116DCE20E0F60140815181628165
:101090007381848195810E94D202B6010E94E21A76
:1010A000882309F45DCE8091B0019091B10102973F
:1010B00009F056CE8C2F0E94960552CE0F931F93A7
:1010C000CF93DF93EC018F819885009781F00E9488
:1010D00010118C010E9422090E94BD08B801CE01A6
:1010E0000E940506DF91CF911F910F9108956881AD
:1010F00079818D810E94CA09ECCFCF93DF93EC01F7
:101100008C81882399F0CE010E94D903811111C0EE
:101110000E94FC0D882351F08D81882339F0809145
:10112000A00482FF03C082E00E94550FDF91CF919F
:101130000895CE010E945E08CE010E942903F6CFD9
:10114000A6E0B0E0E6EAF8E00C94AE352696E2E0E0
:101150000C94CA35A9E0B0E0E0EBF8E00C94AC35B3
:101160002996E4E00C94C83508950E94B4080895C7
:101170000E94B5088093B601089508950E94B808AA
:1011800008959091B601892B0E94B8080895909116
:10119000B60189230E94B80808959091B601892765
:1011A0000E94B80808950E94B40808950E94D308C8
:1011B00008950E94D6088093B501089580E00E94AA
:1011C000D908089591E001C0990F8A95EAF7892F0F
:1011D0000E94D908089521E030E001C0220F8A95CD
:1011E000EAF78091B501822B0E94D908089521E089
:1011F00030E001C0220F8A95EAF720958091B50171
:1012000082230E94D908089521E030E001C0220F16
:101210008A95EAF78091B50182270E94D90808953E
:101220009091B501892B0E94D90808959091B5013C
:1012300089230E94D90808959091B50189270E94B9
:10124000D90808950895262F277091E001C0990FBD
:101250002A95EAF723E0769567952A95E1F7FB0151
:10126000EE0FFF1FE60FF71FE40FF51F50E040E001
:10127000682F70E08191DF0111979B01042E02C05D
:10128000369527950A94E2F721702195282729237E
:1012900028272C934F5F5F4F4330510559F708952E
:1012A000A82FA77023E0969587952A95E1F7FC0172
:1012B000EE0FFF1FE80FF91FE60FF71F50E040E0A9
:1012C00080E0219130E00A2E02C0369527950A94DD
:1012D000E2F721703327042E01C0220F0A94EAF7A7
:1012E000822B4F5F5F4F4330510559F70895262FEA
:1012F000911109C0833038F4682F70E042EB51E05F
:10130000822F0E942309089591110AC0833030F47E
:1013100062EB71E090E00E945009982F892F0895A8
:1013200090E0FCCFCF92DF92FF920F931F93CF9369
:10133000DF936C010091B5018091B601082BC3E0E9
:10134000D0E010E0FC2EC8010C2E02C095958795C8
:101350000A94E2F780FD0CC02197A0F7F12C8F2DA5
:10136000DF91CF911F910F91FF90DF90CF90089563
:10137000B6018C2F0E944912019771F3F0CFCF93E1
:10138000DF93EC010E949209BE010E944912DF9195
:10139000CF9108951F93CF93DF93EB019091AF010D
:1013A000992339F0CB010E94BF09DF91CF911F91A2
:1013B0000895882369F0CB010E949209182F682FA5
:1013C000CE010E947709BE01812F0E944912EDCF04
:1013D000CB010E948409182FF6CFE1E0F0E0DF0195
:1013E00002C0AA0FBB1F6A95E2F7BD01DF0102C070
:1013F000AA0FBB1F4A95E2F76A2B01C0EE0F2A9590
:10140000EAF7962F9823961302C08E2B0895E09545
:101410008E230895242F462F682F8091B5010E94B6
:10142000ED090E94D9080895FF920F931F93CF935F
:10143000DF93C091B70189E0F82E8091B8018C1339
:1014400005C0CDB7DEB7E5E00C94C735D0E0FC9E13
:10145000F001FD9EF00D1124E754FE4F0081118133
:1014600022813381448155816681778180850E9404
:10147000AA082196C770E1CF0F931F930091010234
:101480001091020220910302309104024091050262
:101490005091060260910702709108028091090242
:1014A0000E94AA081F910F910895482F2091B7011B
:1014B0009091B80159E0291302C080E0089530E00E
:1014C000529FF001539FF00D1124E754FE4F81818C
:1014D000681306C08081481303C085818111EECF57
:1014E0002F5F3F4F2770E7CFB0E0A0E0EAE7FAE0D8
:1014F0000C94A93580910702807F09F054C0809137
:101500000602882309F44FC0E091B70189E0D82E84
:101510008091B8018E1709F446C00E2F10E0ED9DA2
:10152000F0011124E754FE4F8481882309F440C060
:10153000D09EE001D19ED00D1124FE01E754FE4F54
:10154000918180910202981333C0908180910102B1
:1015500098132EC0858181112BC0E280F380809189
:10156000030290910402E81AF90A60E081E092E037
:101570000E94000361E072E00E944A18E816F90632
:10158000B8F4809107028F70806180930702C15484
:10159000DE4F88818F708061888381E092E00E94B5
:1015A0007D080E94140ACDB7DEB7E7E00C94C5357C
:1015B000F8013196E770ACCF2F923F925F926F9215
:1015C0007F928F929F92AF92BF92CF92DF92EF92D3
:1015D000FF920F931F93CF93DF93CDB7DEB768973A
:1015E0000FB6F894DEBF0FBECDBF8C0186E0F801C8
:1015F000DE01539601900D928A95E1F7D801149679
:101600007C9014971596EC9081E0282E82E0382E7D
:101610008091050281113AC071101BC0FF24F39420
:101620008F2D68960FB6F894DEBF0FBECDBFDF9149
:10163000CF911F910F91FF90EF90DF90CF90BF90CF
:10164000AF909F908F907F906F905F903F902F9082
:101650000895EE20B9F0C8010E94F105F82E882304
:1016600089F089E0F801A1E0B2E001900D928A953D
:10167000E1F781E092E00E949F040E94740A0E94B8
:101680003C0ACECFC8010E947D08C8CFF801608017
:101690005180C280D38060E081E092E00E9400032C
:1016A0005C01F09006028091030290910402FF20F9
:1016B00009F433C14601881A990A60E081E092E09A
:1016C0000E94000361E072E00E944A1888169906A1
:1016D00008F0BEC0772009F4A1CF80910702382F0F
:1016E000307F20910202D80111969C9111973111FF
:1016F0005CC0291321C0209101029C9129131CC0B8
:10170000409108025091090217962D913C91421781
:10171000530791F4E11095C18F70806180930702A7
:101720000E943C0A81E092E00E947D0880910702BD
:10173000F8018683F12C74CFE11083C1652D862DCD
:101740000E94550A882309F45BC161E072E0C5017B
:101750000E94D71A882309F453C181E092E00E94C5
:101760007D0889E0E1E0F2E0DF011D928A95E9F76A
:101770000E943C0ADFCF2A5F2F70223078F0C80128
:101780000E947D08EF2C5BC1992319F0882309F48E
:1017900056C1805E883008F452C1F1CF803F08F412
:1017A0004EC1815F833058F74AC1291320C0209170
:1017B00001029C9129131BC040910802509109021B
:1017C00017962D913C9118974217530781F4E11019
:1017D0000EC016968C93C8010E947D0889E0F8011E
:1017E000A1E0B2E001900D928A95E1F748CFC801DF
:1017F0000E94F105882309F445CFEE2009F442CF79
:10180000809107028032B8F02091010230910202EB
:101810003B872A87DD86CC86909105029E871F86AE
:10182000888B80910802909109029A8B898BCE0156
:101830000A960E947D0889E0F801A1E0B2E00190DB
:101840000D928A95E1F70E94740A0E943C0AE6CE46
:1018500080910702982F907FA1F46C2DDE8ACD8AAB
:10186000462D552D7E89872D9E2D0E94A00881E052
:1018700092E00E947D0889E0F10111928A95E9F7D2
:1018800077CF772009F4CACE20910202D8011196B1
:101890009C91119729131DC0209101029C9129133D
:1018A00018C0409108025091090217962D913C9161
:1018B00018974217530769F4E1100BC016968C93E2
:1018C000C8010E947D0889E0F10111928A95E9F72B
:1018D000A7CEC8010E94F105882309F4D3CEEE20DB
:1018E00009F4D0CE80910702803208F4A4CF209171
:1018F0000102309102023A832983DC82CB829091EB
:1019000005029D831E828F838091080290910902B7
:1019100099878887CE0101968CCF5601A81AB90AFB
:1019200060E081E092E00E94000361E072E00E94CA
:101930004A18A816B90608F053C0772009F46ECEED
:10194000FE2CEE2009F49ECE90910202D801119651
:101950008C911197981336C0909101028C91981335
:1019600031C0209108023091090217968D919C9107
:101970002817390739F58091030290910402C81A9B
:10198000D90AB8ECCB16D104A0F49091070290FDCF
:1019900010C0907F71F080910702F8018683903F1C
:1019A00009F419CF982F907F905F8F70892B8683D1
:1019B00012CF89E0F801A1E0B2E001900D928A9582
:1019C000E1F72ECEC8010E94F105811134CF80913C
:1019D0000702816080930702C8010E947D0820CE23
:1019E0006C2DDE8ACD8A462D552D7E89872D9E2D24
:1019F0000E94A00889E0D1011D928A95E9F73FCEA7
:101A0000652D862D0E94550AE82E811193CE6B8A92
:101A10005C8A8B899C890E94BF09292F22952F708F
:101A2000243008F0A8CE9F70223008F4ADCE992360
:101A300009F4AFCEF8019681907F09F0AACEFE2C72
:101A4000EFCD8091070281608093070261E072E030
:101A5000C5010E94DB1A882309F46CCE7ECEA2E178
:101A6000B0E0E5E3FDE00C94AB350A871B872C87DB
:101A70003D874E875F87688B798B8A8BCE010A966C
:101A80000E94DC0A8823C9F04E85442351F00A8560
:101A90001B852C853D855F85688979898A890E94A7
:101AA000AA0889E0F82E8091B7019091B8018913B6
:101AB0003DC06296E5E00C94C73589E0FE013A9698
:101AC000DE01119601900D928A95E1F78E858823AB
:101AD00041F32091B80130E0C90101968770992740
:101AE0004091B7014817190699F099E0929FD001EB
:101AF000939FB00D1124A754BE4FFE013196019063
:101B00000D929A95E1F78093B8010E94140AC9CF0B
:101B10000E94D1051092B8011092B70189E0E1E06E
:101B2000F2E0DF011D928A95E9F7BBCF8F9DC001DE
:101B3000112487549E4F0E94DC0A882309F4B9CFF0
:101B4000E091B701FE9EF0011124E754FE4F0081A1
:101B5000118122813381448155816681778180851D
:101B60000E94AA088091B70190E00196877099279A
:101B70008093B70198CF8091370208958091F70440
:101B80009091F804892B89F00E94F22D2091350262
:101B900030913602AC01421B530B81E02091F704D7
:101BA0003091F8044217530708F480E081700895DB
:101BB00080913402869586958695089580913402A9
:101BC000877008950E94F22D2091320230913302E5
:101BD000821B930B2091F7043091F804821793072E
:101BE00048F08091340282FB882780F991E08927B0
:101BF0008170089580E0FCCF90913402977081E06D
:101C000009F480E00895809164020895909164023F
:101C1000892B8093640208958095909164029823A3
:101C20009093640208951092640208958091630273
:101C3000089590916302892B8093630208958095A3
:101C40009091630298239093630208951092630227
:101C5000089580936202089510926202089580931D
:101C600061020895109261020895809138020895EA
:101C700008950E94380E089590913702292F282345
:101C8000281729F0892B809337020E94390E089576
:101C900090913702292F282331F080958923809352
:101CA00037020E94390E089508950E94540E089537
:101CB000CF93C82F809138028C238C1771F00E942B
:101CC000F22D9093360280933502809138028C2B4E
:101CD000809338028C2F0E94550ECF9108959091D9
:101CE0003802292F282381F0809589238093380298
:101CF000882359F00E94F22D90933602809335028A
:101D0000809138020E94550E089590E080E0F4CF53
:101D1000CF93C82F8091A00482FF0FC0809138021A
:101D20008C1759F00E94F22D909336028093350261
:101D3000C09338028C2F0E94550ECF910895809148
:101D40003802882349F0109238021092360210921D
:101D5000350280E00E94550E0895CF938091640271
:101D6000C0916302C82B80913802882399F080913A
:101D7000F7049091F804892B29F00E94BE0D81117F
:101D80000E949F0E80913802C82B0E945F2C811107
:101D90000E949F0E8091610280958C239091620237
:101DA000892BCF910895CF93DF93C0910201D091F9
:101DB00003010E94AD0E8883C0910201D0910301FE
:101DC00048E050E06AE272E0CE010E94DE35892BE5
:101DD00059F088E0FE01AAE2B2E001900D928A95E6
:101DE000E1F7CE010E94FC2BDF91CF910895CF93B4
:101DF000DF93C0910001D09101010E94AD0E898353
:101E0000C0910001D091010140E250E06AE072E02F
:101E1000CE010E94DE35892B59F080E2FE01AAE056
:101E2000B2E001900D928A95E1F7CE010E94072C55
:101E3000DF91CF91089580911A01882339F0809124
:101E40009F0487FF03C00E94F70E08950E94D30EDF
:101E5000089508950E94290F08959091A00492FF7B
:101E600017C098E0899F90011124622B609334027F
:101E70000E94EB080E94F22D90933302809332026D
:101E8000809134028695869586950E942A0F089542
:101E90000E94EB08089510923402109233021092BF
:101EA000320280E00E942A0F0895909134028095BA
:101EB000892380933402282F277069F4891759F0F9
:101EC0009091A00492FF07C08695869586950E9402
:101ED000F7080E944B0F08959091A00492FB2227CF
:101EE00020F9281769F080FB92F99093A004809163
:101EF0009F049091A0040E94B50F82E00E94550FAC
:101F000008958091A00482FB882780F991E08927B9
:101F10000E946C0F089581E00E946C0F089580E08C
:101F20000E946C0F08956FEF7FEF90E080E00E94B9
:101F30004736089590E080E00E941336863E9E4F1B
:101F400019F40E94762A089580E0089582E090E0D6
:101F50000E940B36089583E090E00E940B360895AE
:101F600084E090E00E9413360895BC0184E090E084
:101F70000E9447360895AB01BC018FE090E00E94BB
:101F80003B360895AB01BC0183E190E00E943B36F3
:101F9000089560E070E0CB010E94C20F089560E0F8
:101FA00070E0CB010E94BB0F0E94C90F0895A8E00A
:101FB000B0E0EDEDFFE00C94AE3566EE7EEF90E024
:101FC00080E00E94473660E082E090E00E9429367F
:101FD00081E08093B60161E083E090E00E942936C1
:101FE00060E074E184E090E00E94473660E086E0C3
:101FF00090E00E9429366FEF87E090E00E9429363A
:1020000040E050E0BA0188E090E00E943B3660E09A
:1020100084E290E00E94293660E087E190E00E942F
:10202000293660E08CE090E00E94293660E08DE087
:1020300090E00E94293619821A821B821C821D821E
:102040001E821F82188648E050E068E170E0CE01F1
:1020500001960E94193640E050E0BA0180E290E01B
:102060000E943B3680E00E948F2A0E94BE2A0E9476
:10207000CF0F2896E2E00C94CA350E94D70F08953E
:10208000682F8EE090E00E9429360895A6E0B0E027
:10209000ECE4F0E10C94AC350E94F22D8C018091BF
:1020A0006502909166028017910781F019821A8269
:1020B0000E94F22D682F49815A81792F80E090E0AB
:1020C0000E94490410936602009365022696E4E09C
:1020D0000C94C8350E94FE2D60936C0270936D02C3
:1020E00080936E0290936F0260936802709369020E
:1020F00080936A0290936B020895089508950E9458
:102100007D10089508950E94821008958FE393E151
:102110000E9458140E945C150E94FF190E947E10B4
:102120000E947F10089581E008950E949310089501
:102130000E9493100895089508950E949B100E9494
:102140009C1008950E945B130E94130408950E943E
:10215000E92D0E94CE2A0E94D2130E94A2100E9452
:10216000831008950E94E3240E94F1290E94FC1E1E
:102170000E94411C0895A6E0B0E0E1ECF0E10C946F
:10218000A8350E94951081110AC00E9446100E9435
:10219000B2100E9426042696E8E00C94C4350E94F2
:1021A000DE131091670280E00E947E13181769F316
:1021B0008091700281FD0E9484130E949810D82E95
:1021C00080E00E947E13182F80916702181729F172
:1021D000E12EE82600E0FF24F394CC24C3948E2D56
:1021E0008F21A9F0DD2099F009831A820E94F22D37
:1021F0009C838B83CD8291E0812F8F2109F490E025
:1022000049815A816B817C818D810E9449040F5FD5
:10221000FF0C033021F7109367020E946A10B7CFBA
:102220001F93CF93DF930E944E12EC01C11580E5FE
:10223000D807F0F5C11580E4D80708F09CC0C03E6F
:10224000D10520F5CD3CD10508F082C0C83AD105B2
:1022500078F4C53AD10508F073C0C130D10519F141
:10226000209709F1C430D105F0F4D0E0C0E01BC0E4
:10227000C33CD105D0F7C85AD0E0CC0FDD1FC45AFB
:10228000DE4F0990D881C02DD4640DC0C11580E205
:10229000D80708F0D1C0C11581E0D80708F05AC0AE
:1022A000C83ED10510F7CE01DF91CF911F9108955F
:1022B000C03682E5D80718F5C03482E5D80708F0A3
:1022C0006BC0C03282E5D80708F05FC0C11582E557
:1022D000D80708F497C02C2F2695269580E2289FD2
:1022E000900111248C2F8370C1E0D0E002C0CC0F8C
:1022F000DD1F8A95E2F7C22BD32BDD68D4CFC03A1D
:1023000082E5D80760F4C03882E5D80708F459C0E0
:10231000CF71D0E0DC2FCC27C46FD06AC4CFC03CD3
:1023200082E5D80708F462C0C03E82E5D80708F00D
:102330009CCFDC2FCC27CC27DF71C06FD06AB3CF06
:10234000C55AD0E0CE56DE4FC881D0E0D064ABCFC6
:10235000D065A9CF8D2F0E94F012182FCE0199279A
:102360000E944E12C12FD0E0DC2FCC27CC27DF718A
:10237000C82BD92B98CFCE0199270E944E12CC277B
:10238000DF70C82BD92BD06A8ECFCF71D0E0DC2F75
:10239000CC27C16FD06A87CF2C2F26952695277022
:1023A00080E2289F900111248C2F8370C1E0D0E03F
:1023B00002C0CC0FDD1F8A95E2F7C22BD32BDC685D
:1023C00072CF2C2F26952695277080E2289F9001AA
:1023D00011248C2F8370C1E0D0E002C0CC0FDD1F30
:1023E0008A95E2F7C22BD32BDA685DCF8C2F8F71E1
:1023F0000E94F012C82FD0E0DC2FCC27CC27DF7151
:10240000D06251CF8C2F8F710E94F01255E0D6957B
:10241000C7955A95E1F7CF70D0E0DC2FCC27282F55
:1024200030E084FF05C044E0220F331F4A95E1F7F6
:10243000C22BD32BD06937CF8D2F8F710E94F01212
:10244000182FCE0199270E944E12C12FD0E0DC2F09
:10245000CC27CC27DF71C82BD92BD2CF462F209188
:10246000CB033091CC03232B89F4703F39F4603FC8
:1024700069F48091F3049091F4040895711106C0F9
:10248000633020F460E00E94A122089590E080E093
:1024900008950E942E120E9410110895823891050D
:1024A000B9F1B0F48133910509F47DC048F4893263
:1024B000910509F46DC08A32910509F47BC0089535
:1024C0008533910509F45FC08933910509F10895B9
:1024D000833E9105D9F138F4803E910529F1823E81
:1024E000910579F10895863E9105D9F1873E9105D0
:1024F00009F43EC0843E910541F52091A00421FFDE
:1025000024C080919F0484FD19C087EE90E0089557
:1025100020919F04237009F05AC02091A00423FF4A
:1025200014C089E290E0089520919F0420FD38C0F6
:102530003091A00430FF09C024FF43C090E080E048
:10254000089520919F0422FDF7CF089520919F04C4
:1025500022FD3AC03091A00430FD39C024FFF5CFF0
:10256000EDCF20919F0423FFF0CF24FDE7CFCDCF07
:1025700020919F0423FD2EC03091A00431FFEECFA7
:1025800084EE90E0089520919F0425FFDECFC9CF0F
:1025900020919F0425FD21C02091A00423FFD5CFC9
:1025A00089E390E0D2CF20919F0426FFCECF8AE22C
:1025B00090E0089520919F0426FFC7CF81E390E02B
:1025C000089583EE90E0089582EE90E0089580EE05
:1025D00090E0089586EE90E0089585E390E00895F8
:1025E00090919F0492FF10C041E0282F2471243065
:1025F00009F040E031E0282F2871283009F030E060
:10260000431711F02CE0822793FF10C041E0282FE0
:102610002471243109F040E031E0282F287128315D
:1026200009F030E0431711F02CE082273091A0042C
:1026300030FF10C051E0282F2171213009F050E007
:1026400041E0282F2871283009F040E0541711F09C
:1026500029E0822731FF10C041E0282F217121316C
:1026600009F040E031E0282F2871283109F030E0EE
:10267000431711F029E0822794FD877E089580E0BA
:1026800008950E94930F08950E94DE138FE39CE942
:102690000197F1F700C000000E94DE1380E00E9465
:1026A0007E1380FF04C00E9441130E94592E08959A
:1026B0000E94441308950E949A0F811102C00E9443
:1026C0003D100E94A60F809370020E94B00F90935D
:1026D000A00480939F040E9458130E94AB0F0E9495
:1026E000BE088091B5010E94D608089508950E9401
:1026F0007613089508950E947A130895E82FF0E064
:10270000EE55FB4F808108950895CF93A5E9B1E080
:1027100048E951E061E070E08D918F3F91F0E82F42
:10272000E295EF70F0E0C1A18F709B0101C0220F14
:102730008A95EAF7922F90959C2391A382A1822BF0
:1027400082A34A175B0741F7CF910895CF93DF9398
:10275000AC01A62FB0E083E0689FF0011124EB5696
:10276000FE4F73E081E060E091919F3FC9F0C92F77
:10277000C295CF70D0E028A130E09F7002C035959F
:1027800027959A95E2F720FD0BC0282F622B880F22
:10279000715051F7A40FB51F6C93DF91CF9108953D
:1027A00020E0F4CF0E9485131092A2041092A1049D
:1027B00081E00E9403140E9477130895A1E0B0E025
:1027C000E4EEF3E10C94AD35198260E0CE010196A0
:1027D0000E94A6139091A104898121E0981301C061
:1027E00020E098138093A10441E062EA74E081EA5A
:1027F00094E00E940414182F0E947B13812F2196CD
:10280000E3E00C94C9350895B0E0A0E0EAE0F4E11B
:102810000C94A8356C017B01042FC22F222379F080
:1028200081E0809373020E94F22D90937202809354
:10283000710280E0CDB7DEB7E8E00C94C435D091EA
:102840007302DD23B1F380917102909172020E94B4
:102850000A2E059770F310E0A801B601C7010E9487
:10286000DE35892B31F0A801B601C7010E94EB3596
:10287000CD2F109273028C2FDDCF0E94E52F0E9486
:10288000A7100E94F22F08950E94F72F0E94BB10FC
:102890000E94113008950E948B2D0E94CB2F0E9420
:1028A00086100E943D140E9444140E949D10FBCF8C
:1028B0009093A9018093A801089581152CE79207B0
:1028C00041F42091060130910701232B11F490E08F
:1028D00080E00895E7E3F3E090E080E063E278E1F0
:1028E0004FEA57E12CE337E17783668351874087CE
:1028F000338722879787868701967096883091055F
:1029000099F70895CF92DF92EF92FF921F93CF93A2
:10291000DF93CDB7DEB72A970FB6F894DEBF0FBEB0
:10292000CDBFE3EAF4E080E5DF011D928A95E9F787
:10293000EFEFF2E088E3DF011D928A95E9F783EA81
:10294000C82E84E0D82E7F0110E0F701D182C0822A
:10295000BE016F5F7F4F812F0E949821892B79F4F0
:1029600088E0FE013196D60101900D928A95E1F73B
:1029700089859A85D70113969C938E931297BAE016
:10298000CB0ED11CE7E0EE0EF11C1F5F1830E9F60C
:102990002A960FB6F894DEBF0FBECDBFDF91CF9160
:1029A0001F91FF90EF90DF90CF900895AAE0B0E0E4
:1029B000ECEDF4E10C94A53506E812E084E7C82EAE
:1029C00082E0D82EF12C97E0E92E992493942EEFF3
:1029D000A22E22E0B22ED6010D931D936D01BE01F1
:1029E0006F5F7F4F8F2D0E94C021892B09F056C049
:1029F000F8013896DF018E2D1D928A95E9F78981BD
:102A00009A81D80111969C938E938F8112968C9304
:102A100012978D8113968C931397888514968C93B7
:102A20001497898515968C9315978B819C811796A1
:102A30009C938E93169718961C9218978A8587FFF9
:102A400037C01E961C921E921D9780FF03C0D801AE
:102A500018969C9281FF04C0F8019085926090873F
:102A600082FF07C0D80118969C9118979460189619
:102A70009C9383FF04C0F80190859860908784FF41
:102A800007C0D80118969C911897906118969C934E
:102A900085FF04C0F801808580628087015F1F4F39
:102AA000F394F8E0FF1297CF2A96EBE00C94C1352F
:102AB000F801B686A586C9CF0E946A140E948214C6
:102AC0000E94D6140895CF92DF92FF920F931F9326
:102AD000CF93DF93CDB7DEB72A970FB6F894DEBF5A
:102AE0000FBECDBF8C01603269F5DC011196EC910F
:102AF0001197EE3038F5F0E0ED58F94C0C94913523
:102B000088E0EBE1F1E0DE01119601900D928A95EB
:102B1000E1F780E2F80111928A95E9F786E0D801A1
:102B20008C9311961C92119712961C9212971396E1
:102B30001C92139788E0FE013196149601900D9235
:102B40008A95E1F72A960FB6F894DEBF0FBECDBF87
:102B5000DF91CF911F910F91FF90DF90CF9008955B
:102B600080EBF8018083118212821382EBCF1396DF
:102B70008C911397682F70E0762F662712968C91B0
:102B8000860F972F911D092E000CAA0BBB0B55E049
:102B9000880F991FAA1FBB1F5A95D1F7AC01BD0121
:102BA000405E5F4F6F4F7F4F481759076A077B079B
:102BB00048F2803B9105A105B10520F6413B510546
:102BC0006105710520F040EB50E060E070E0481BCB
:102BD000590BBC016C537F4FC8010E94D535B2CF51
:102BE00040E250E06FEF70E00E94F4358091060102
:102BF000F80180838091CB038183A4CF81E090E0B2
:102C00009093CC038093CB0382E390E09093CA032C
:102C10008093C9030E94F22D95CF809106018C9379
:102C20008091CB0311968C9311978091C9031296D2
:102C30008C9388CF40E250E0BC01FC0182819381FB
:102C40000E94581A7FCFBC016F5F7F4F4FE150E069
:102C500012968D919C910E94881AF801808372CF00
:102C6000BC016C5F7F4F4CE150E012968D919C91BE
:102C70000E94A31AF2CF0E94241A64CF1296EC91FC
:102C80001297E73008F05ECFF0E0EF57F94C0C9464
:102C9000913580E2F80111928A95E9F788E08C93EA
:102CA00011968C931197C3CFFC0183813AE0F32EE8
:102CB0009E012F5F3F4F6901D901EF2D1D92EA95CB
:102CC000E9F7B9010E947021D8018D93F6010190B6
:102CD0000D92FA94E1F736CF1396FC908AE0F80152
:102CE0003496DE01119601900D928A95E1F7898163
:102CF0009A810E945D149A8389838B819C810E94B2
:102D00005D149C838B838D819E810E945D149E83C4
:102D10008D838F8198850E945D1498878F83BE0173
:102D20006F5F7F4F8F2D0E948421F80180830E9466
:102D30006A1408CF13968C912AE0F22EFE01319688
:102D40006F01DF01EF2D1D92EA95E9F7B6010E94B0
:102D50009821BACF1396FC908AE0F8013496DE01F0
:102D6000119601900D928A95E1F789859A850E94C6
:102D70005D149A878987BE016F5F7F4F8F2D0E94F8
:102D8000AC21F80180830E948214DCCE13968C91D2
:102D90009AE0F92EFE0131966F01DF01EF2D1D92B1
:102DA000EA95E9F7B6010E94C0218ECF1396FC90F8
:102DB0008AE0F8013496DE01119601900D928A9511
:102DC000E1F78B819C810E945D149C838B83BE0103
:102DD0006F5F7F4F8F2D0E94D421F80180830E9466
:102DE000D614B0CEA6E0B0E0E8EFF6E10C94AE3534
:102DF0009093F4048093F304811520E2920730F459
:102E00000E9495022696E2E00C94CA3580EF8983F1
:102E10008A830E94F22D8160682F9C838B83498175
:102E20005A817C8181E091E00E944904EBCFA6E0C9
:102E3000B0E0EDE1F7E10C94AE359093F4048093AB
:102E4000F304811520E2920730F40E94AB0226962B
:102E5000E2E00C94CA3580EF89838A830E94F22DC8
:102E60008160682F9C838B8349815A817C8181E0BA
:102E700090E00E944904EBCF0F931F93CF93DF9311
:102E80008C01EB0167EB73E08C2F0E947021892B82
:102E9000A1F48091130590911405019798F4DD2712
:102EA000CF53DC4F8881F80112821882833029F1D8
:102EB00080F4813091F08230B9F0DF91CF911F9191
:102EC0000F910895EFE9FFE03197F1F700C000009E
:102ED000E4CF8430B9F0853081F78091B7039091C9
:102EE000B803009751F306C08091B9039091BA03DB
:102EF000009799F30E941717E0CF8091BB03909140
:102F0000BC03F6CF8091BD039091BE03009791F76B
:102F10002091B7033091B8038091B9039091BA031F
:102F200021153105F1F2009729F7C901E3CFCF93BD
:102F3000DF93EC010E94F216809113059091140525
:102F4000019730F4CE010E941717DF91CF910895B9
:102F5000EFE9FFE03197F1F700C00000F1CF0F93E8
:102F60001F93CF93DF938C01EB0167EB73E08C2F02
:102F70000E947021892B09F05CC0FE01FF27D80157
:102F800012968C911297EF53FC4F8130B9F415963D
:102F90009C9192FF02C080830AC090FFFCCF82E028
:102FA00080838091B9039091BA030097B9F480911E
:102FB000B7039091B8030097E1F110C08230B9F5E2
:102FC00015968C9182FD28C080FD0BC083E0808324
:102FD0008091BB039091BC03009701F10E94F2160F
:102FE00028C084E080838091BD039091BE03009748
:102FF000A9F78091B7039091B8030097F9F00E9468
:1030000097178091B9039091BA03009739F780918F
:10301000B7039091B803E2CF85E080838091B70336
:103020009091B803009729F00E949717F0CF86E09F
:103030008083DF91CF911F910F9108958091B90303
:103040009091BA03B8CF0F931F93CF93DF938C0166
:10305000862F67EB73E00E947021892BB1F4C09139
:10306000B703D091B803209781F0F80182818330B3
:1030700051F4CE010E949717CE010E949717CE01FE
:103080000E94971702C08430D0F7DF91CF911F9133
:103090000F910895AAE0B0E0E0E5F8E10C94AA35BC
:1030A0008C017B0197558F3F910509F070F4BE01AB
:1030B0006F5F7F4F802F0E947021892B31F48985AB
:1030C0009A852A96E6E00C94C635B701C8010E949D
:1030D000D21AF7CFCF93DF93FB012581211131C0A5
:1030E000EC01D755CF3FD10509F058F567EB73E0F8
:1030F0008C2F0E947021892B21F5CE0124E0880FAE
:10310000991F2A95E1F7FC01E95CFC4F22812130EF
:10311000E1F42091B7033091B803232B91F0209173
:10312000B9033091BA03232B61F02091BB03309196
:10313000BC034091BD035091BE03242B352B232BA0
:1031400061F081E0DF91CF9108952230D1F7209195
:10315000BB033091BC03232BA1F3FC01E45CFC4FC7
:1031600020812E7F2083895C9C4F0E944329E9CFD8
:10317000B0E0A0E0EEEBF8E10C94A6358FEF9FEF06
:103180004430510508F469C040919F0441FB8827F1
:1031900080F990E0880F991F42FB002700F910E0AA
:1031A000000F111F000F111F802B912B40FBCC240F
:1031B000C0F8D12C8C299D2943FB222720F9C22F4E
:1031C000E0E0DE2F53E0CC0FDD1F5A95E1F78C2BAA
:1031D0009D2B44FBAA27A0F9B0E0E4E0AA0FBB1F97
:1031E000EA95E1F78A2B9B2B45FBEE27E0F9F0E00F
:1031F000A5E0EE0FFF1FAA95E1F78E2B9F2B46FB54
:10320000222720F930E0B6E0220F331FBA95E1F70C
:10321000822B932B47FB222720F930E03695322F63
:10322000222737952795822B932B2091A004322FAC
:103230003170F32EE82EF92A26952170B22EBB0CA0
:10324000A82EBF28C501BB0CAA0BBB0BFB018083BA
:103250009183A283B38390E080E0CDB7DEB7EAE04C
:103260000C94C235CF92DF92EF92FF928FEF9FEFD7
:103270004430510508F46AC0FB01C080D180E2806F
:10328000F3800E94D10580919F04C0FA80F9B701B4
:10329000A601769567955795479540FB81F9B7014B
:1032A000A60122E076956795579547952A95D1F71F
:1032B00040FB82F9B701A60133E0769567955795F3
:1032C00047953A95D1F740FB83F9B701A601E4E0B1
:1032D0007695679557954795EA95D1F740FB84F920
:1032E000B701A601F5E07695679557954795FA954C
:1032F000D1F740FB85F9B701A601A6E07695679561
:1033000057954795AA95D1F740FB86F9B701A601D5
:10331000B7E07695679557954795BA95D1F740FBF5
:1033200087F980939F048091A004D0FA80F9D1FAA4
:10333000CC24C0F8C0FA81F98093A00480919F0446
:103340009091A0040E94B50F90E080E0FF90EF9074
:10335000DF90CF9008958091F5049091F6040E943B
:10336000771C0895DB01FC013296259134914217B8
:10337000530758F0FC01349665917491A901CD0171
:103380000E94EB3590E080E008958FEF9FEF089565
:103390000F931F93CF93DF9305EF14E0D0E0C0E0CD
:1033A000CE010E945E21F80161918F01861719F00C
:1033B000CE010E9468212196C432D10589F7DF91A0
:1033C000CF911F910F910895DA019C012E5F3F4F1D
:1033D000F90145915491F90125913491A217B30750
:1033E00058F0FC013496859194910E94EB350E942F
:1033F000C81990E080E008958FEF9FEF08950F9334
:103400001F93CF93DF9305EF14E0D0E0C0E0CE012F
:103410000E945E21F80181938F012196C432D1056B
:10342000B1F7CEE7D1E0FE0185919491009711F0BC
:10343000FC0109952C96F2E0CE30DF07A1F7DF9171
:10344000CF911F910F910895E5EFF4E0128E138E46
:103450008FEA90E09183808385E0848F28E833E1D0
:103460003383228322E330E0378B268B28EC30E055
:10347000318F208F158E178E168E20E530E031A308
:1034800020A382A30E94C8190E94D1051092A00413
:1034900010929F04E0EAF4E0808184608083809150
:1034A0009F049091A0040E94B50F0E94FF190895F7
:1034B000EF92FF920F931F93CF93DF937C01EB0169
:1034C0008A016FEF70E0CE010E94F43524E731E00D
:1034D000A4E0B2E090E080E0AC014E5F5F4F0417E3
:1034E000150788F0F90165917491E616F70630F436
:1034F0008C0F9D1FFC0171836083CA01245F3F4FC5
:10350000A217B30749F7CDB7DEB7E6E00C94C6358E
:103510009C0184E791E0FC01A591B4912A173B0737
:1035200041F00C96E2E084309E07A9F78FEF9FEF01
:103530000895FC0136962591349121153105B1F39A
:10354000F901099508950F931F93CF93DF93C4E773
:10355000D1E0FE01259134918217930741F02C961A
:1035600022E0C430D207A9F70FEF1FEF15C0FE010C
:1035700038962591349121153105B1F3CE01F90129
:1035800009958C01892B41F4FE013A96859194911D
:10359000009711F0FC010995C801DF91CF911F91AF
:1035A0000F91089580910D0590910E0508958091D9
:1035B000120581700895809112058695817091E0C1
:1035C000892708958091120583FB882780F9089543
:1035D00080910B0590910C0508958832910538F47F
:1035E0008E319105E8F40497A0F480E008958933C2
:1035F000910558F48D32910510F48B97B1F78091B5
:10360000100582FB882780F908C084369105B9F33C
:10361000ECCF809110058295817091E08927089503
:103620008091100583FB882780F9F7CF80911005E2
:1036300085FB882780F908958091100586FB8827EF
:1036400080F9089580910801877F8093080182E0C6
:103650000E941F0E8091080184FF06C08F7E809318
:10366000080182E00E94060E8091080185FF06C0D5
:103670008F7D8093080180E20E94060E0E941B0F3E
:103680000895CF93DF93EC01662319F082E00E9446
:10369000190ECE0190528115904308F4DD27CE011A
:1036A0000E949502DF91CF9108959C01305221151F
:1036B000304308F499270E94AB020895FC0123E0EF
:1036C000F695E7952A95E1F7EE71FF27E353FC4F56
:1036D00020813181AC014F70552781E090E002C01C
:1036E000880F991F4A95E2F7662329F0822B932BC6
:1036F0009183808308958095909582239323F8CFBA
:10370000FC0123E0F695E7952A95E1F7EE71FF2796
:10371000E353FC4F8F70992721E030E002C0220F65
:10372000331F8A95E2F7808191812823392381E034
:10373000232B09F480E00895B0E0A0E0E2EAFBE189
:103740000C94A935EC017B01D42E890180910801EC
:1037500082FF83C02091F6033091F7032C173D07B9
:1037600019F0209709F079C0909108019B7F909300
:10377000080161E091FD10C08091F8039091F90378
:10378000A701481B590B61E08091090190910A0142
:103790004817590708F460E061708091080160FBE8
:1037A00081F980930801C9010E945E1B0E94030EEB
:1037B00081FF08C08091080180618093080182E048
:1037C0000E940C0E0E94030E85FF08C08091080124
:1037D00080628093080180E20E940C0E60910801D3
:1037E00066956170A8018091F6039091F7030E949D
:1037F000411BD11014C080911305909114050197BD
:1038000028F56091080166956170A8018091F60322
:103810009091F7030E94551B0E94221B2DC0B801F6
:103820008091F6039091F7030E94161B882319F3E9
:10383000B8018091F6039091F7030E941C1B81113F
:10384000DACFCDB7DEB7E7E00C94C535EFE9FFE09E
:103850003197F1F700C00000D2CFCE010E94801B4B
:10386000A801682FCE010E94551B8091F60390910C
:10387000F7038C179D0781F2F092F903E092F803A9
:10388000E0CF8091100580FF1EC08091080182FF6B
:103890001AC00E94F22D2091F8033091F903AC0177
:1038A000421B530B2091090130910A014217530723
:1038B00050F02DEE33E041E0BC018091F603909191
:1038C000F7030E949C1B089590910801892F8E7F19
:1038D00090FF8160809308010E94221B08958091CF
:1038E00008018E7F809308010E94221B0895909307
:1038F0000A01809309010895B0E0A0E0E2E8FCE14C
:103900000C94A835EC017B018091100580FD07C067
:1039100011E0812FCDB7DEB7E8E00C94C4350E94EA
:10392000F22D6C01F7018581882369F180910801EE
:1039300082FF08C02DEE33E040E0B60190E080E069
:103940000E949C1BC431FCE7DF07D1F0C5312CE796
:10395000D20751F0C3318CE7D80741F480910801B8
:1039600081608093080102C00E94641CCE019052C5
:1039700081159043B0F41092F7031092F603C8CF6C
:103980000E946F1CF3CF809108018F7EC13ED1054C
:1039900031F0C53ED105B9F5809108018F7D809346
:1039A00008018091080180FFB3CFB701CE010E94CA
:1039B000ED1AF7011581882309F4AFC0112309F42A
:1039C000A5C00E94030E182F0E94350E812B8D7FFB
:1039D00001F11092F7031092F6038091100581FD1A
:1039E00018C060E0CE010E945E1BA70160E0CE011E
:1039F0000E94411B0E94350E8D7F0E94880E82E03E
:103A00000E94550F59C0CE0190528115904348F63F
:103A10007FCF89E0F701ADEEB3E001900D928A957A
:103A2000E1F71092F0031092EF038091F60390916A
:103A3000F703C817D90709F04AC0B701CE010E94A1
:103A4000161B882309F443C08091080181FD36C00C
:103A50008091F8039091F9038601081B190BB701B7
:103A60008091F6039091F7030E944A1808171907EE
:103A700070F50E94030E81FF08C0809108018061EB
:103A80008093080182E00E940C0E0E94030E85FFC5
:103A900008C08091080180628093080180E20E9442
:103AA0000C0E6091080166956170A7018091F60384
:103AB0009091F7030E94411B10E02BCFB70180913A
:103AC000F6039091F7030E941C1B8111C1CF0E9445
:103AD000030E182F0E94350E812B9091080181FB57
:103AE00091F9909308010E94350E8D7F0E94880EF7
:103AF000D093F703C093F603D092F903C092F80372
:103B00008091080184608093080179CF970140E09B
:103B1000B601CE010E949C1BFCCE11112CCFF8CE19
:103B20000895EF92FF920F931F93CF93DF938091AD
:103B30006D04882361F0E091FA038DE0F82E809106
:103B40006D04E81748F010926D041092FA03CDB797
:103B5000DEB7E6E00C94C635EE24E394EE0EE09278
:103B6000FA03CE2FD0E0EF9DF0011124EB5FFB4F65
:103B700084818823B1F087819085892BA1F4818588
:103B800092858F3F980779F061E00E94901DFC9E1E
:103B9000F001FD9EF00D1124EB5FFB4F14820E949B
:103BA000260EEE2DCCCF00811181228133814481FC
:103BB00055816681778180850E942F0DE8CF089519
:103BC00010926F0410926E04EFEFF2E08581811184
:103BD00002C014821682379683E0E733F807B1F704
:103BE0000895DC016091030480910404962F8913E9
:103BF00001C00895292F30E0F901EE0FFF1FE550B5
:103C0000FC4F408151814A175B07A1F487E08A9FEE
:103C1000A0018B9F500D112441505D4F81E0FA01AE
:103C200084839613E6CF2F5F3F4F23703327209373
:103C3000030408952F5F3F4F922F9370D8CF6F9258
:103C40007F929F92AF92BF92CF92DF92EF92FF92BC
:103C50000F931F93CF93DF93DB0114962C9114974E
:103C6000211157C0A0906D04E5E0F4E030E020E0C1
:103C7000B12C66246394712C2A1508F048C0C384C3
:103C8000D484ED90FC9011976FEF7FEF912C492D2C
:103C900050E08A01000F111F0E0D1F1DE801088161
:103CA00019810115110531F0C016D10609F4BA01C8
:103CB0009394EDCF6F3F7607D9F1E30102C0CC0FAB
:103CC000DD1F6A95E2F7BC2AB30102C0660F771FB9
:103CD0009A94E2F7AB0141505109B416150639F533
:103CE00012964D915C9113976DE0629FF001639F76
:103CF000F00D1124EB5FFB4F5087478324E02483B2
:103D0000108211829287818721E015962C930E9460
:103D1000F11DDF91CF911F910F91FF90EF90DF90F8
:103D2000CF90BF90AF909F907F906F900895148236
:103D30002F5F3F4F3D96A0CF1F93CF93DF93C0914E
:103D4000030417E0809104048C1308C00E94911DA5
:103D50000E94E01DDF91CF911F910895D0E0FE01F8
:103D6000EE0FFF1FE550FC4F80819181189FB0013D
:103D7000199F700D112461507D4F0E941F1E2196C6
:103D8000C370E0CF0F931F93CF93DF93DC012D918E
:103D90003C91119740E090E080E0E82FF0E0EE0FDA
:103DA000FF1FE20FF31FC081D1812097B9F0FB0103
:103DB0000081118190E005C0CE17DF0709F441E0D2
:103DC0009F5FE92FF0E0EE0FFF1FE00FF11F019062
:103DD000F081E02D309781F78F5FDFCF442349F0EA
:103DE000981708F4DB01CD01DF91CF911F910F915E
:103DF0000895B0E0A0E0F7CF80910B01882341F156
:103E00008091700490917104009711F10E940A2E24
:103E100020916E0430916F0428173907C8F49091EF
:103E2000030480910404981759F00E949C1E10927C
:103E30006F0410926E041092710410927004089531
:103E40000E94911D10927104109270040E94E01D56
:103E50000895109271041092700410920B018091D9
:103E60000404809303040E94E01D0E94911D0895A4
:103E700080910B01882319F00E94291F089581E089
:103E800080930B010895ADE0B0E0E9E4FFE10C940C
:103E90009E354C016B0180352CE7920761F4FB01E4
:103EA00015811123E9F081E080930B01812F2D967C
:103EB000E2E10C94BA358135FCE79F0739F4FB0148
:103EC0001581112369F00E94291FF0CF82359C478C
:103ED00039F4FB011581112319F00E94381FE6CF38
:103EE0009091B5018091B601892B0E94EF03182FA4
:103EF0000E94DF1D181731F0F601608171810E9468
:103F00002E124C016FEFE62E62E0F62EB12CA12CA2
:103F10001D8666246394712CCE0101969B878A8747
:103F2000F7012081318144244A94542C212C822D84
:103F300090E0FC01EE0FFF1FE20FF31F4081518163
:103F40004115510531F08416950609F42C0123948E
:103F5000EECF312CFFEF4F165F0609F44CC0F7018E
:103F6000448130900B01832D411180E0F82FF170D6
:103F70003F2EF6018581882309F4D6C0332009F449
:103F8000D3C0B701C5010E94E81A8C01F7018581F1
:103F9000811114C09301042C01C0220F0A94EAF786
:103FA0008681822B868380916E0490916F048017A6
:103FB000910720F410936F0400936E04C301022C48
:103FC00002C0880F991F0A94E2F70197F701268132
:103FD0002817190681F4809170049091710400975C
:103FE00009F44FC00E940A2E0817190708F049C0AB
:103FF00021E0F7012483FD85F329FD872FEFA21A25
:10400000B20A87E0E80EF11C98E0A916B10409F0A5
:1040100087CFF6018581882309F4F1C0FD85FF2350
:1040200009F4EDC00E94F22D909371048093700406
:1040300080916D04883008F591E0980F90936D049D
:1040400099E0F601DE01119601900D929A95E1F743
:104050002DE0829FC00111248B5F9B4F29E0FE0160
:104060003196DC0101900D922A95E1F72FEF3FEF99
:10407000FC01328721879486838611E0FD851F2706
:1040800015CF20900304809104048C8790E080E099
:104090002C85221216C08E159F0509F4ACCF422C38
:1040A000512CF201EE0FFF1FE550FC4FB182A082B0
:1040B0008FEF481A580A93E049225524409204048D
:1040C0009ACF422C512CF201EE0FFF1FE550FC4F0E
:1040D00080819181E7E0E89F8001E99F100D112424
:1040E00001501D4FB701C8010E94C21E0097A9F0E0
:1040F00021E0FC0124838E159F0509F47CCF2091DB
:10410000030422120AC08017910739F492012F5F2D
:104110003F4F2370332720930304EFEF4E1A5E0ABC
:10412000F42DF3702F2EB4CFF701F581FC87F70142
:10413000868190E0FC85F11120C09301022C02C021
:10414000220F331F0A94E2F721503109281739074B
:1041500031F4442309F451C0C5010E94F11DC3018B
:10416000042C01C0880F0A94EAF7982F9095F70164
:104170008681892386833C843ECFAC01042C02C017
:10418000559547950A94E2F7BA01617077279C012B
:104190002150310982239323892B59F5672B49F14B
:1041A000F70182819381892BF9F0EA85FB8527E06D
:1041B00011922A95E9F70E94F22D282F8B839C8378
:1041C00084E08D83F70182819381782F8887998796
:1041D00009811A813C8144E05E816F81892F0E94B0
:1041E0002F0DF7011582BBCF60E0C5010E94901D25
:1041F000F8CFF42FF170FC87B2CF3C86B0CF90910E
:10420000030480910404981719F00E949C1E35CF76
:104210000E94911D10927104109270040E94E01D82
:104220002CCF84E008950F931F93CF93DF938430B6
:1042300008F561111FC04330E8F4042F10E0000FAF
:10424000111F26E0829F000D111D1124C8018996BF
:104250000E940B36C82FD0E0DC2FCC27C8018A96ED
:104260000E940B369E01282BC901DF91CF911F912F
:104270000F91089590E080E0F8CF1F93CF93DF93E4
:10428000122F8430B8F4611115C0433098F4C42F54
:10429000D0E0CC0FDD1F96E0899FC00DD11D112409
:1042A000632FCE0189960E942936612FCE018A960E
:1042B0000E942936DF91CF911F9108958432910594
:1042C00028F48F5B9F4F0E940B36089580E008957D
:1042D0008432910520F48F5B9F4F0E942936089508
:1042E0009B01883070F49AE0899FB00111246B59CA
:1042F0007F4F4AE050E0C9010E94FB3590E080E02A
:1043000008958FEF9FEF08959B01883070F49AE035
:10431000899FB00111246B597F4F4AE050E0C901D9
:104320000E944D3690E080E008958FEF9FEF089552
:104330009B01883070F49AE0899FB00111246B547E
:104340007F4F4AE050E0C9010E94FB3590E080E0D9
:1043500008958FEF9FEF08959B01883070F49AE0E5
:10436000899FB00111246B547F4F4AE050E0C9018E
:104370000E944D3690E080E008958FEF9FEF089502
:104380009B01883070F49AE0899FB00111246B5F23
:104390007E4F4AE050E0C9010E94FB3590E080E08A
:1043A00008958FEF9FEF08959B01883070F49AE095
:1043B000899FB00111246B5F7E4F4AE050E0C90134
:1043C0000E944D3690E080E008958FEF9FEF0895B2
:1043D000AEE1B0E0EEEEF1E20C94A835C09006013B
:1043E000D090070181E090E090930701809306014F
:1043F00000E010E0412F60E0802F0E9443029C010A
:10440000412F60E0802F0E943D211F5F133091F704
:104410000F5F043071F70E94241A1E8A1D8A188EBD
:104420001F8A1A8E198E1C8E1B8E88EC90E09E8F30
:104430008D8F10E0BE016B5E7F4F812F0E94842123
:104440001F5F1830B9F77E018BE0E80EF11C8AE09F
:10445000F70111928A95E9F710E0B701812F0E94C8
:10446000AC211F5F1830C9F7CE0101967C018AE0AC
:10447000F70111928A95E9F78FEF9FEF9E838D8365
:1044800087E08A8710E0B701812F0E94D4211F5F47
:104490001830C9F7D0920701C09206016E96E8E085
:1044A0000C94C435EF92FF920F931F93CF93DF9339
:1044B000EC018A017C01E60EF71ECE018996CE152D
:1044C000DF0529F4CDB7DEB7E6E00C94C635C83178
:1044D000D10540F40E940B36F80180830F5F1F4F17
:1044E0002196EBCFF8011082F9CFB0E0A0E0EBE726
:1044F000F2E20C94A8358C016A01489780F488E1B7
:1045000090E0801B910B8617970748F07801E60E24
:10451000F71EE801CE018996CE15DF0529F4CDB747
:10452000DEB7E8E00C94C435C831D10540F4FE0193
:10453000E01BF10BEC0DFD1D60810E9429362196D8
:10454000E9CF843038F4611105C0433018F40E947B
:104550001321089590E080E0089580E108958BEAAA
:1045600092E00895EF92FF920F931F93CF93DF9302
:10457000EC018A017C01E60EF71ECE018B5A9E4F9C
:10458000CE15DF0529F4CDB7DEB7E6E00C94C635CD
:10459000CB3A22E0D20740F40E940B36F801808328
:1045A0000F5F1F4F2196E9CFF8011082F9CFB0E0DD
:1045B000A0E0EDEDF2E20C94A8357C016A018C01DB
:1045C000060F171FEC01CE018B5A9E4FC017D10763
:1045D00029F4CDB7DEB7E8E00C94C435CB3A22E03D
:1045E000D20740F4FE01EE19FF09EC0DFD1D6081BC
:1045F0000E9429362196E7CFCF93DF93C5E5D1E01E
:1046000060E0CE010E9429362196C11584E0D807CA
:10461000B9F7DF91CF910895A4E0B0E0E2E1F3E2D1
:104620000C94A735F82E2FE0281708F4A5C08FEFBB
:1046300093E00E940B3681119FC005E511E0F11057
:1046400036C019821A821B821C82BB24BA9478015C
:104650005FEFE51AF50AC8010E940B3689831A82BA
:10466000882309F489C0813009F07FC0680182E0A5
:10467000C80ED11CC7010E940B36E82E8A838823FE
:1046800009F47AC0C6010E940B36F82E8FEF8E0D0A
:104690008330D8F46801E3E0CE0ED11CFB82FF200A
:1046A00021F0CE0101960E946D288601D0CF011520
:1046B00044E0140709F460C0C8010E940B36811160
:1046C00001C0FA940F5F1F4FBACF8BEF8E0D83306E
:1046D00030F5C8010396FB826C01FF2031F36801BD
:1046E000F4E0CF0ED11C0E940B368C838823E9F2B4
:1046F0008B819C8181302FEF920710F0982F8827B3
:1047000046E0E41631F057E0E51631F00E949717C5
:10471000CCCF0E94F216C9CF0E941717C6CF84E0F3
:10472000E812C3CF6801E4E0CE0ED11CC8010396A5
:104730000E940B36FF2001F18823F1F08150990B84
:10474000B89E9001B99E300D11244F2D4150550B4C
:10475000CA01820F931F019708F4A7CFEFE9FFE08A
:104760003197F1F700C00000F6CF60E0CE0101966E
:104770000E940728670199CF2496E9E00C94C3357D
:10478000CF93DF93EB0186319C4709F03BC00E9439
:10479000030E982F9A7A20910F0520FF04C0382F1E
:1047A000347409F090E021FF04C0382F317109F012
:1047B00090E022FF04C0382F387809F090E023FF02
:1047C00003C0827209F090E08D81882389F081E036
:1047D000911101C080E08093720489E2911185E318
:1047E0000E940A2D0E941B0F80E0DF91CF91089557
:1047F00080917204811104C089E20E94212DF2CFC0
:1048000085E3FBCF81E0F1CFFC018481862351F465
:1048100092819923B9F06923808583FF05C081E0E7
:1048200061110FC080E00895892F8F7092959F705D
:10483000982B862F8F7062956F70682B81E096138E
:10484000F1CF089581E0FDCFCF93DF93EC0160912C
:104850007D0470917E0480917F04909180040E9479
:10486000192E643F71408105910518F580917D04F2
:1048700090917E04A0917F04B0918004809379048C
:1048800090937A04A0937B04B0937C0484EF91E02E
:10489000A0E0B0E08093750490937604A093770431
:1048A000B0937804D0937404C0937304DF91CF91D4
:1048B00008950E94FE2D6093790470937A0480938A
:1048C0007B0490937C0482E390E0A0E0B0E0E2CF30
:1048D000FF920F931F93CF93DF93F82E00918404E0
:1048E000109185040115110509F44DC0109274044E
:1048F000109273040E94320E0E942C0E00918404C8
:1049000010918504D8011696CD91DC919E013A95BF
:1049100021153F4108F4D07ED1E0C11101C0D0E0A3
:10492000D8011996ED91FC911A97309731F01B96AA
:104930006D917C9180E00995D823DD2339F08CEFCF
:104940008C0F813A30F58C2F0E94212DFF2099F099
:10495000E0918404F0918504808584FD0CC08091F1
:104960008304882341F0808191819C012150310989
:104970002F333E47A0F00E941B0F10928504109227
:10498000840410928304C801CDB7DEB7E5E00C942F
:10499000C7350E941B0F8C2F0E942D05D7CF0E9478
:1049A0002424E9CF10920C0180E00E94682408952D
:1049B00080910C01882319F00E94D224089581E08F
:1049C00080930C0108950F931F938091730490912D
:1049D0007404892B89F16091790470917A04809133
:1049E0007B0490917C040E94192E00917504109113
:1049F000760420917704309178046017710782075C
:104A00009307D0F080917304909174040E949502F2
:104A100010927404109273041092790410927A0424
:104A200010927B0410927C0410927504109276040C
:104A300010927704109278041F910F910895A4E0CA
:104A4000B0E0E5E2F5E20C949E358C017A8369834F
:104A5000DB0115965C905520B1F08E35BCE79B07C5
:104A600059F08F35ECE79E0759F08D359C4759F486
:104A70000E94D824312C0DC081E080930C01FACF24
:104A80000E94D224F7CF30900C01311007C033249C
:104A90003394832D2496E2E10C94BA35680120EE1C
:104AA000C21AD1080E94030EF82E0E94BB0D482E98
:104AB0000E94350E482A4F2838E0C316D10408F06A
:104AC00094C098012770332781E090E001C0880FDF
:104AD0002A95EAF7552009F485C0482AA981BA81A8
:104AE0008D919C910E948409809004019090050111
:104AF0008114910409F4E1C021E030E0390102C0E1
:104B0000660C771C8A95E2F7E0918404F0918504A5
:104B1000FA83E983A0908104B0908204212CE22DD5
:104B2000F0E0EE0FFF1FE80DF91D208131813C837D
:104B30002B832115310509F4C0C0411005C0D901EE
:104B400012968C9181118BC0EB81FC81838190E066
:104B500086219721892B09F482C08085982F977030
:104B600009F487E0F8E0CF16D10408F058C05520CA
:104B700009F451C086958170882309F470C0AB8117
:104B8000BC81ED90FC900E151F0519F4552009F419
:104B900066C0EB81FC8129813A81E217F30709F4B1
:104BA0005EC00584F685E02D309721F08081882352
:104BB00009F455C0642D8B819C810E9404248823B4
:104BC00009F44DC00E151F0509F08BC00115110524
:104BD00009F48CC051108CC0EA14FB0409F03FC0EA
:104BE000512C86C08095482279CF552009F44EC0BB
:104BF00010938204009381040E94FE2D60937D0433
:104C000070937E0480937F049093800410927404C8
:104C10001092730463CF82FB882780F9ADCF5520B3
:104C2000F1F08170A9CF0E942D0583C00497813ACD
:104C3000910548F4802F0E940A2D552009F427CFB2
:104C40000E941B0F17CF0E941B0F8FE39CE9019757
:104C5000F1F700C00000802F0E94A804EECF23943B
:104C60005ECFFC01208131812017310731F45110D2
:104C700007C01092830480E031C0552009F407CFAB
:104C8000DC0118968C9185FD02CFF5CF80918104CF
:104C9000909182048017910781F4109282041092FF
:104CA000810410927D0410927E0410927F04109271
:104CB0008004109274041092730480918404909183
:104CC0008504009709F4E3CEA8E0CA16D10448F69B
:104CD000642D0E9404248111DACE81E00E946824B0
:104CE000D8CEE114F10409F077CF512CF12CE12C4E
:104CF00080E00E946824EB81FC81F0938504E093BE
:104D0000840481E08093830485810E942F0E5110DA
:104D100010C0E114F10469F0AB81BC818D919C91CC
:104D20009C0124503109213A310508F07CCF0E94C2
:104D3000212DEB81FC8106811781C8019A9581158F
:104D40009F4108F4107EFF24F394C80101978F332C
:104D50009E4708F0F12CAB81BC811996ED91FC9136
:104D60001A97309731F01B966D917C9181E00995EF
:104D7000F822FF2081F0EB81FC81868197810E94DF
:104D80005A020E94290EC801F8E0CF16D10408F09B
:104D90004DCF0E9424240E941B0F4FCFCF93DF934F
:104DA000EC01FB018581882309F4D2C09E013057B4
:104DB0002332310508F0B2C00E94B00F9093A004D6
:104DC00080939F04FE01E150F047E232F10520F4A8
:104DD000E857F94C0C94913580919F048160809341
:104DE0009F0493C08091A00488608093A0048DC02C
:104DF00080919F048260F3CF80919F048460EFCF05
:104E000080919F048860EBCF8091A0048160EDCFFA
:104E10008091A0048260E9CF80919F048061DFCF00
:104E200080919F048062DBCF80919F048064D7CF04
:104E30000E94D10580919F048068D1CF80919F040A
:104E40008C60CDCF8091A0048360CFCF80919F04F0
:104E50008E7FC5CF8091A004877FC7CF80919F04AC
:104E60008D7FBDCF80919F048B7FB9CF80919F04B0
:104E7000877FB5CF8091A0048E7FB7CF8091A004AB
:104E80008D7FB3CF80919F048F7EA9CF80919F04A7
:104E90008F7DA5CF80919F048F7BA1CF0E94D105EC
:104EA00080919F048F779BCF80919F04837F97CFC2
:104EB0008091A0048C7F99CF80919F0482FB9927D9
:104EC00090F921E0922790FB82F990FB83F987CF3C
:104ED0008091A004982F909591708E7F892B90FBE4
:104EE00081F983CF90919F04892F8F7B96FF8064F7
:104EF00076CF0E94D10590919F04892F97FB87F967
:104F000080586DCF81E00E94401080919F04909165
:104F1000A0040E94B50F0E94D10580E0DF91CF91DF
:104F2000089580E0F0CF90919F04892F8F7E94FFA9
:104F3000806155CF90919F04892F8E7F90FF816073
:104F40004ECF9091A004892F877F93FF88604DCF2B
:104F500081E0E4CFB0E0A0E0E0EBF7E20C94A9350B
:104F6000E82FF0E0EC5FFD4FD490282F2695269592
:104F7000269530E0F901EC55FD4F0491877010E063
:104F8000082E02C0159507950A94E2F701701127C3
:104F9000F901EC56FD4FE490F12C082E02C0F59477
:104FA000E7940A94E2F791E0E922FF24F901EC5733
:104FB000FD4FC491D0E002C0D595C7958A95E2F720
:104FC000C170DD270115110519F081EE0E94A804BA
:104FD000E114F10419F086EE0E94A8048D2D0E94C0
:104FE0009605E114F10419F086EE0E942D050115D5
:104FF000110519F081EE0E942D05CD2B19F08CE2E0
:105000000E949605CDB7DEB7E7E00C94C535EF9268
:10501000FF920F931F93CF93DF93EC01162F0AE0BB
:105020008881882309F454C0813009F04EC08981F9
:10503000813099F47E0122E0E20EF11C8A810E9407
:105040009605E7012196812F815050F3EFE9FFE0AB
:105050003197F1F700C00000F7CF823041F47E01B4
:1050600082E0E80EF11C8A810E94A804EACF833016
:1050700041F47E01E2E0EE0EF11C8A810E942D05D2
:10508000E0CF843011F02196DDCF2A81229690E086
:1050900080E0AE014F5F5F4F2053330B2A30310564
:1050A00048F0019778F2EFE9FFE03197F1F700C09F
:1050B0000000F7CF089FB001099F700D1124C901AE
:1050C000860F971F2981EA01E4CF0E94AA27BACF51
:1050D000CDB7DEB7E6E00C94C63560E00E94072845
:1050E0000895B0E0A0E0E7E7F8E20C94A6357C0173
:1050F0005B01C42FD22FFC0185818823C9F0409326
:1051000088040E94F22D909387048093860480E2A5
:105110008C0F883040F4C77081E001C0880FCA95B9
:10512000EAF70E94A305CDB7DEB7EAE00C94C235DA
:1051300010918804141338C08091860490918704DC
:105140000E940A2E6C01B701C5010E944A18C816B8
:10515000D90650F5C0E2CD0F1D17C1F080E2810FD6
:10516000883048F4177081E0012E01C0880F0A943E
:10517000EAF70E94AA05C83048F481E09D2F977095
:1051800001C0880F9A95EAF70E94A305802F0E941C
:105190009605C83040F6D77081E001C0880FDA95D7
:1051A000EAF70E94AA05BFCF80E28C0F883008F092
:1051B000BACFC77081E001C0880FCA95EAF7F1CF76
:1051C0000F93DB0188519C4787309105A0F5FC01C6
:1051D000E655F94C0C94913506E221EE41EE6AE178
:1051E0007CE7CD010E94712880E00F91089507E2CD
:1051F00025EE45EE6BE17CE7F4CF06E221EE40EED2
:1052000068E17CE7EECF07E225EE44EE69E17CE75A
:10521000E8CF06E221EE42EE6CE17CE7E2CF07E266
:1052200025EE46EE6DE17CE7DCCF08E221E045EEBD
:105230006EE17CE7D6CF15968C91882319F01092F9
:105240008804D3CF81E0D1CF4115510511F0FA0187
:1052500009950895CF93DF93EC014A855B856E85B0
:105260007F850E9424298B810E941F0E8C810E94C1
:105270000C0E0E941B0F86E0FE0111928A95E9F741
:10528000DF91CF910895CF93DF93EC018D8181FD64
:1052900011C082608D838B810E94190E8C810E94C7
:1052A000060E0E941B0F488559856E857F85CE01AD
:1052B0000E94242910928C0410928B048D8180FD11
:1052C00003C0CE010E942A29DF91CF910895CF9388
:1052D000FB01C581CC23F1F0E0918B04F0918C04AB
:1052E0003097D9F0E817F907C1F0FF2724E0EE0F57
:1052F000FF1F2A95E1F7DF01A45CBC4F2C912460CD
:105300002C93E95CFC4F91838083CF010E94432959
:105310000E94260E8C2FCF910895C0E0FBCF0F93F3
:105320001F93CF93DF938C0197558F3F910509F021
:10533000C8F5C801992724E0880F991F2A95E1F73D
:10534000EC01C95CDC4FFB012581FC01E45CFC4FF6
:10535000808120FB80F98083222351F10E94F22D6D
:1053600090938A04809389048A818F5F8A830E9444
:10537000030E8B830E94160E9B81892B8B830E94C8
:10538000350E8C834E815F816E857F85CE010E94B4
:1053900024298D8181FF02C010E000E010938C046D
:1053A00000938B0481E0DF91CF911F910F910895BD
:1053B0004C855D856E857F85CE010E9424298D8177
:1053C00081FFF0CFCE010E942A2980918B04909119
:1053D0008C048017910731F710928C0410928B0483
:1053E000E1CFA9E0B0E0E7EFF9E20C94AC358091B1
:1053F0008B0490918C04892B61F1809189049091A8
:105400008A040E940A2E8C01BE016F5F7F4F89E0E3
:10541000FB0111928A95E9F780918B0490918C049D
:105420000E944A1880179107A0F480918B049091F4
:105430008C04992724E0880F991F2A95E1F7FC0135
:10544000E45CFC4F208122FD04C0895C9C4F0E94DB
:1054500043292996E4E00C94C8351F93CF93DF933A
:1054600087372CE7920759F0C1E088379C47E1F471
:10547000FB01C581CC2371F10E94702A06C0FB019B
:10548000C581CC23B1F00E946D2A0E94EB080E94D6
:10549000732AD82F0E94702AC82F0E946D2A4D2F80
:1054A0006C2F0E940A0AC0E08C2FDF91CF911F91D0
:1054B00008950E946D2A0E94F7080E94732A182FEF
:1054C0000E94702AD82F0E946D2A412F6D2F0E94B2
:1054D0000A0AEACF0E94702AEECF80910F01089548
:1054E00080910E01089580910D01089585E290E06C
:1054F0000E940B368C3D89F486E290E00E940B36C8
:10550000873859F487E290E00E940B3691E0873D9E
:1055100009F090E0892F8170089580E0FCCFCF934F
:10552000C82F6FEF81116CED85E290E00E94293663
:105530006FEFC11167E886E290E00E9429366FEFB5
:10554000C11167ED87E290E00E942936CF9108955E
:10555000089588E290E00E940B36682F70E090E09A
:1055600080E008950895CF93C62F0E94B22A6C2F31
:1055700088E290E00E942936CF91089580E00E9451
:105580008F2A60E070E0CB010E94B32A0E94E821DC
:105590000E94FC2281E00E948F2A08950E94A82A7E
:1055A0000E94A92A0E94B22A0E94762A811102C072
:1055B0000E94BE2A08959C01FB018581882351F039
:1055C000A90157574038510530F4822F0E940C230F
:1055D00080E0089581E008952FEFFC012083089575
:1055E0001F93CF93DF93EC01162F88812091CB037B
:1055F0003091CC03232B79F08E3F09F068C089816C
:10560000833020F08550833008F061C0612FCE01D7
:105610000E9463155CC08C3009F494C0D0F48430CF
:1056200009F477C060F4823009F441C008F064C026
:105630008130C9F1612FCE010E94EC2A48C086302A
:1056400009F47DC008F470C08A30A0F78FEF88831A
:105650003EC0803109F493C0D8F48E3009F47EC086
:1056600008F474C08091060190910701892B79F1AB
:105670006B8170E06D31710550F589819A81AE01C1
:105680004C5F5F4F9827892798270E94D7221FC019
:10569000823109F47AC008F475C0833109F486C0F8
:1056A0008E3F41F6B3CF198289E08A8310C0898189
:1056B0008230A9F08330B1F0813009F0BBCF0E9475
:1056C000FE2D0E9497356A837B838C839D83612F97
:1056D000CE010E94BF2EDF91CF911F9108950E94AD
:1056E000A92AEFCF8091060190910701892B79F3C8
:1056F00080E00E947E13D9CF8981823009F09ACF51
:105700006A817B818C819D810E9497350E94B32A9A
:10571000DECF4B816A8189810E94132198278927D6
:1057200098279D838C83D3CF2C813D8132272327DB
:1057300032274B816A8189810E943D21C8CF0E9416
:10574000E821C5CF0E94AD228983C1CF0E94AF223C
:105750009827892798279A838983B9CF6B8170E02E
:105760006D31710508F0B3CF89819A81AE014C5F2C
:105770005F4F9827892798270E94B222A8CF0E94BE
:10578000FC22A5CF0E941121DFCF6B8170E06D312B
:10579000710508F09CCF89819A81AE014C5F5F4F03
:1057A0009827892798270E94522291CF6B8170E019
:1057B0006D31710508F08BCF89819A81AE014C5F04
:1057C0005F4F9827892798270E94752280CF909352
:1057D0009204809391040895E0919104F0919204D1
:1057E000309729F00190F081E02D0995089580E02F
:1057F00008950E94EC2B0895E0919104F091920499
:10580000309721F00280F381E02D09950895E09111
:105810009104F0919204309739F026E0DC012C934A
:105820000480F581E02D09950895A3E0B0E0EBE157
:10583000FCE20C94AE3520918F043091900428172F
:105840003907A1F09093900480938F04E091910424
:10585000F0919204309751F023E029839B838A834F
:105860000084F185E02DCE01019609952396E2E0B2
:105870000C94CA35A3E0B0E0E0E4FCE20C94AE3551
:1058800020918D0430918E0428173907A1F0909350
:105890008E0480938D04E0919104F09192043097EE
:1058A00051F024E029839B838A830084F185E02DD5
:1058B000CE01019609952396E2E00C94CA35209119
:1058C0000201309103012E5F3F4F80911A0188231E
:1058D00079F080919F0487FF0BC0209100013091E7
:1058E00001012E5F3F4F9EE180E0915018F4089532
:1058F00096E0FACFF90141919F014423B1F38F5F04
:10590000F4CF882321F190911A01992311F19091FC
:105910009F0497FF1EC0E82FE695E695E695EE31C9
:10592000B0F42091000130910101E20FF32FF11D3D
:10593000228130E0877041E050E002C0440F551FE3
:105940008A95E2F72423352381E0232B91F480E02C
:1059500008952091020130910301F9013296285FE8
:105960003F4F9191981721F0E217F307D1F7EFCF4E
:1059700081E008959C01FC0132969FEF80E0419107
:10598000461751F09F3F19F4411101C0982F8F5FC6
:105990008630A9F79F3F09F40895290F311D97FD1F
:1059A0003A95F90162830895FC0132960896219197
:1059B000261303C0DF0111971C92E817F907B9F706
:1059C0000895E62FE695E695E695EE3168F4E80F42
:1059D000F92FF11D677021E030E001C0220F6A95B8
:1059E000EAF78281822B82830895E62FE695E69579
:1059F000E695EE3170F4E80FF92FF11D677021E0A4
:105A000030E001C0220F6A95EAF7209582812823B1
:105A100022830895682F80911A01882359F080917C
:105A20009F0487FF07C080910001909101010E94AF
:105A3000E12C089580910201909103010E94BA2CFB
:105A40000895682F80911A01882359F080919F044E
:105A500087FF07C080910001909101010E94F52C01
:105A6000089580910201909103010E94D42C089521
:105A700080911A01882379F080919F0487FF0BC0E1
:105A8000E0910001F091010132968EE1DF011D925B
:105A90008A95E9F70895E0910201F09103013296A9
:105AA00086E0F4CF08950E94522D0895811106C01A
:105AB00081E0809393040E94532D089582E0F9CFF2
:105AC00083E0809393040E94532D08950E94562DE5
:105AD000089581E0809393040E94532D08950E94BD
